{
  "contractName": "SaleClockAuction",
  "abi": [
    {
      "inputs": [
        {
          "internalType": "address payable",
          "name": "_nftAddress",
          "type": "address"
        },
        {
          "internalType": "uint16",
          "name": "_cut",
          "type": "uint16"
        }
      ],
      "stateMutability": "nonpayable",
      "type": "constructor"
    },
    {
      "anonymous": false,
      "inputs": [
        {
          "indexed": false,
          "internalType": "uint256",
          "name": "tokenId",
          "type": "uint256"
        }
      ],
      "name": "AuctionCancelled",
      "type": "event"
    },
    {
      "anonymous": false,
      "inputs": [
        {
          "indexed": false,
          "internalType": "uint256",
          "name": "tokenId",
          "type": "uint256"
        },
        {
          "indexed": false,
          "internalType": "uint256",
          "name": "startingPrice",
          "type": "uint256"
        },
        {
          "indexed": false,
          "internalType": "uint256",
          "name": "endingPrice",
          "type": "uint256"
        },
        {
          "indexed": false,
          "internalType": "uint256",
          "name": "duration",
          "type": "uint256"
        },
        {
          "indexed": false,
          "internalType": "uint256",
          "name": "ownerCut",
          "type": "uint256"
        }
      ],
      "name": "AuctionCreated",
      "type": "event"
    },
    {
      "anonymous": false,
      "inputs": [
        {
          "indexed": false,
          "internalType": "uint256",
          "name": "tokenId",
          "type": "uint256"
        },
        {
          "indexed": false,
          "internalType": "uint256",
          "name": "totalPrice",
          "type": "uint256"
        },
        {
          "indexed": false,
          "internalType": "address",
          "name": "winner",
          "type": "address"
        }
      ],
      "name": "AuctionSuccessful",
      "type": "event"
    },
    {
      "anonymous": false,
      "inputs": [
        {
          "indexed": true,
          "internalType": "address",
          "name": "previousOwner",
          "type": "address"
        },
        {
          "indexed": true,
          "internalType": "address",
          "name": "newOwner",
          "type": "address"
        }
      ],
      "name": "OwnershipTransferred",
      "type": "event"
    },
    {
      "anonymous": false,
      "inputs": [],
      "name": "Pause",
      "type": "event"
    },
    {
      "anonymous": false,
      "inputs": [],
      "name": "Unpause",
      "type": "event"
    },
    {
      "inputs": [],
      "name": "CANNOT_TRANSFER_TO_ZERO_ADDRESS",
      "outputs": [
        {
          "internalType": "string",
          "name": "",
          "type": "string"
        }
      ],
      "stateMutability": "view",
      "type": "function",
      "constant": true
    },
    {
      "inputs": [],
      "name": "NOT_CURRENT_OWNER",
      "outputs": [
        {
          "internalType": "string",
          "name": "",
          "type": "string"
        }
      ],
      "stateMutability": "view",
      "type": "function",
      "constant": true
    },
    {
      "inputs": [],
      "name": "isSaleClockAuction",
      "outputs": [
        {
          "internalType": "bool",
          "name": "",
          "type": "bool"
        }
      ],
      "stateMutability": "view",
      "type": "function",
      "constant": true
    },
    {
      "inputs": [],
      "name": "nonFungibleContract",
      "outputs": [
        {
          "internalType": "contract TreeContract",
          "name": "",
          "type": "address"
        }
      ],
      "stateMutability": "view",
      "type": "function",
      "constant": true
    },
    {
      "inputs": [],
      "name": "owner",
      "outputs": [
        {
          "internalType": "address",
          "name": "",
          "type": "address"
        }
      ],
      "stateMutability": "view",
      "type": "function",
      "constant": true
    },
    {
      "inputs": [],
      "name": "ownerCut",
      "outputs": [
        {
          "internalType": "uint256",
          "name": "",
          "type": "uint256"
        }
      ],
      "stateMutability": "view",
      "type": "function",
      "constant": true
    },
    {
      "inputs": [],
      "name": "pause",
      "outputs": [
        {
          "internalType": "bool",
          "name": "",
          "type": "bool"
        }
      ],
      "stateMutability": "nonpayable",
      "type": "function"
    },
    {
      "inputs": [],
      "name": "paused",
      "outputs": [
        {
          "internalType": "bool",
          "name": "",
          "type": "bool"
        }
      ],
      "stateMutability": "view",
      "type": "function",
      "constant": true
    },
    {
      "inputs": [
        {
          "internalType": "address",
          "name": "_newOwner",
          "type": "address"
        }
      ],
      "name": "transferOwnership",
      "outputs": [],
      "stateMutability": "nonpayable",
      "type": "function"
    },
    {
      "inputs": [],
      "name": "unpause",
      "outputs": [
        {
          "internalType": "bool",
          "name": "",
          "type": "bool"
        }
      ],
      "stateMutability": "nonpayable",
      "type": "function"
    },
    {
      "inputs": [
        {
          "internalType": "uint256",
          "name": "_ownerCut",
          "type": "uint256"
        }
      ],
      "name": "setOwnerCut",
      "outputs": [],
      "stateMutability": "nonpayable",
      "type": "function"
    },
    {
      "inputs": [],
      "name": "withdrawBalance",
      "outputs": [],
      "stateMutability": "nonpayable",
      "type": "function"
    },
    {
      "inputs": [
        {
          "internalType": "uint256",
          "name": "_tokenId",
          "type": "uint256"
        },
        {
          "internalType": "uint256",
          "name": "_startingPrice",
          "type": "uint256"
        },
        {
          "internalType": "uint256",
          "name": "_endingPrice",
          "type": "uint256"
        },
        {
          "internalType": "uint256",
          "name": "_duration",
          "type": "uint256"
        },
        {
          "internalType": "address",
          "name": "_seller",
          "type": "address"
        }
      ],
      "name": "createAuction",
      "outputs": [],
      "stateMutability": "nonpayable",
      "type": "function"
    },
    {
      "inputs": [
        {
          "internalType": "uint256",
          "name": "_tokenId",
          "type": "uint256"
        }
      ],
      "name": "bid",
      "outputs": [],
      "stateMutability": "payable",
      "type": "function",
      "payable": true
    },
    {
      "inputs": [
        {
          "internalType": "uint256",
          "name": "_tokenId",
          "type": "uint256"
        }
      ],
      "name": "cancelAuction",
      "outputs": [],
      "stateMutability": "nonpayable",
      "type": "function"
    },
    {
      "inputs": [
        {
          "internalType": "uint256",
          "name": "_tokenId",
          "type": "uint256"
        }
      ],
      "name": "cancelAuctionWhenPaused",
      "outputs": [],
      "stateMutability": "nonpayable",
      "type": "function"
    },
    {
      "inputs": [
        {
          "internalType": "uint256",
          "name": "_tokenId",
          "type": "uint256"
        }
      ],
      "name": "getAuction",
      "outputs": [
        {
          "internalType": "address",
          "name": "seller",
          "type": "address"
        },
        {
          "internalType": "uint256",
          "name": "startingPrice",
          "type": "uint256"
        },
        {
          "internalType": "uint256",
          "name": "endingPrice",
          "type": "uint256"
        },
        {
          "internalType": "uint256",
          "name": "duration",
          "type": "uint256"
        },
        {
          "internalType": "uint256",
          "name": "startedAt",
          "type": "uint256"
        },
        {
          "internalType": "uint256",
          "name": "auctionOwnerCut",
          "type": "uint256"
        }
      ],
      "stateMutability": "view",
      "type": "function",
      "constant": true
    },
    {
      "inputs": [
        {
          "internalType": "uint256",
          "name": "_tokenId",
          "type": "uint256"
        }
      ],
      "name": "getCurrentPrice",
      "outputs": [
        {
          "internalType": "uint256",
          "name": "",
          "type": "uint256"
        }
      ],
      "stateMutability": "view",
      "type": "function",
      "constant": true
    }
  ],
  "bytecode": "0x608060405260008060146101000a81548160ff0219169083151502179055506001600460006101000a81548160ff0219169083151502179055503480156200004657600080fd5b506040516200251d3803806200251d83398181016040528101906200006c9190620001ff565b336000806101000a81548173ffffffffffffffffffffffffffffffffffffffff021916908373ffffffffffffffffffffffffffffffffffffffff1602179055506127108161ffff161115620000c057600080fd5b8061ffff1660028190555060008290508073ffffffffffffffffffffffffffffffffffffffff166301ffc9a76380ac58cd60e01b6040518263ffffffff1660e01b815260040162000112919062000289565b60206040518083038186803b1580156200012b57600080fd5b505afa15801562000140573d6000803e3d6000fd5b505050506040513d601f19601f8201168201806040525081019062000166919062000246565b6200017057600080fd5b80600160006101000a81548173ffffffffffffffffffffffffffffffffffffffff021916908373ffffffffffffffffffffffffffffffffffffffff16021790555050505062000373565b600081519050620001cb8162000325565b92915050565b600081519050620001e2816200033f565b92915050565b600081519050620001f98162000359565b92915050565b6000806040838503121562000219576200021862000320565b5b60006200022985828601620001ba565b92505060206200023c85828601620001e8565b9150509250929050565b6000602082840312156200025f576200025e62000320565b5b60006200026f84828501620001d1565b91505092915050565b6200028381620002c6565b82525050565b6000602082019050620002a0600083018462000278565b92915050565b6000620002b38262000300565b9050919050565b60008115159050919050565b60007fffffffff0000000000000000000000000000000000000000000000000000000082169050919050565b600061ffff82169050919050565b600073ffffffffffffffffffffffffffffffffffffffff82169050919050565b600080fd5b6200033081620002a6565b81146200033c57600080fd5b50565b6200034a81620002ba565b81146200035657600080fd5b50565b6200036481620002f2565b81146200037057600080fd5b50565b61219a80620003836000396000f3fe6080604052600436106101095760003560e01c806385b861881161009557806396b5a7551161006457806396b5a7551461032b578063c55d0f5614610354578063dd1b7a0f14610391578063f2fde38b146103bc578063f3fe3bc3146103e557610109565b806385b8618814610281578063860d248a146102ac578063878eb368146102d75780638da5cb5b1461030057610109565b80635fd8c710116100dc5780635fd8c710146101a9578063757de573146101c057806378bd7935146101e957806383b5ff8b1461022b5780638456cb591461025657610109565b806327ebe40a1461010e5780633f4ba83a14610137578063454a2ab3146101625780635c975abb1461017e575b600080fd5b34801561011a57600080fd5b50610135600480360381019061013091906119e3565b610410565b005b34801561014357600080fd5b5061014c610597565b6040516101599190611b86565b60405180910390f35b61017c600480360381019061017791906119b6565b6106c7565b005b34801561018a57600080fd5b506101936106fa565b6040516101a09190611b86565b60405180910390f35b3480156101b557600080fd5b506101be61070d565b005b3480156101cc57600080fd5b506101e760048036038101906101e291906119b6565b61080c565b005b3480156101f557600080fd5b50610210600480360381019061020b91906119b6565b6108ec565b60405161022296959493929190611b25565b60405180910390f35b34801561023757600080fd5b50610240610a2b565b60405161024d9190611bde565b60405180910390f35b34801561026257600080fd5b5061026b610a31565b6040516102789190611b86565b60405180910390f35b34801561028d57600080fd5b50610296610b63565b6040516102a39190611b86565b60405180910390f35b3480156102b857600080fd5b506102c1610b76565b6040516102ce9190611bbc565b60405180910390f35b3480156102e357600080fd5b506102fe60048036038101906102f991906119b6565b610baf565b005b34801561030c57600080fd5b50610315610cea565b6040516103229190611ad3565b60405180910390f35b34801561033757600080fd5b50610352600480360381019061034d91906119b6565b610d0e565b005b34801561036057600080fd5b5061037b600480360381019061037691906119b6565b610da7565b6040516103889190611bde565b60405180910390f35b34801561039d57600080fd5b506103a6610de2565b6040516103b39190611ba1565b60405180910390f35b3480156103c857600080fd5b506103e360048036038101906103de919061195c565b610e08565b005b3480156103f157600080fd5b506103fa611035565b6040516104079190611bbc565b60405180910390f35b600060149054906101000a900460ff161561042a57600080fd5b836fffffffffffffffffffffffffffffffff16841461044857600080fd5b826fffffffffffffffffffffffffffffffff16831461046657600080fd5b8167ffffffffffffffff16821461047c57600080fd5b8284101561048957600080fd5b600160009054906101000a900473ffffffffffffffffffffffffffffffffffffffff1673ffffffffffffffffffffffffffffffffffffffff163373ffffffffffffffffffffffffffffffffffffffff16146104e357600080fd5b6104ed818661106e565b6104f657600080fd5b6105008186611151565b60006040518060c001604052808373ffffffffffffffffffffffffffffffffffffffff168152602001866fffffffffffffffffffffffffffffffff168152602001856fffffffffffffffffffffffffffffffff1681526020018467ffffffffffffffff1681526020014267ffffffffffffffff16815260200160025461ffff16815250905061058f86826111e6565b505050505050565b60008060009054906101000a900473ffffffffffffffffffffffffffffffffffffffff1673ffffffffffffffffffffffffffffffffffffffff163373ffffffffffffffffffffffffffffffffffffffff16146040518060400160405280600681526020017f303138303031000000000000000000000000000000000000000000000000000081525090610660576040517f08c379a00000000000000000000000000000000000000000000000000000000081526004016106579190611bbc565b60405180910390fd5b50600060149054906101000a900460ff1661067a57600080fd5b60008060146101000a81548160ff0219169083151502179055507f7805862f689e2f13df9f062ff482ad3ad112aca9e0847911ed832e158c525b3360405160405180910390a16001905090565b600060149054906101000a900460ff16156106e157600080fd5b6106eb81346113e4565b506106f73033836115bf565b50565b600060149054906101000a900460ff1681565b6000600160009054906101000a900473ffffffffffffffffffffffffffffffffffffffff16905060008054906101000a900473ffffffffffffffffffffffffffffffffffffffff1673ffffffffffffffffffffffffffffffffffffffff163373ffffffffffffffffffffffffffffffffffffffff1614806107b957508073ffffffffffffffffffffffffffffffffffffffff163373ffffffffffffffffffffffffffffffffffffffff16145b6107c257600080fd5b8073ffffffffffffffffffffffffffffffffffffffff166108fc479081150290604051600060405180830381858888f19350505050158015610808573d6000803e3d6000fd5b5050565b60008054906101000a900473ffffffffffffffffffffffffffffffffffffffff1673ffffffffffffffffffffffffffffffffffffffff163373ffffffffffffffffffffffffffffffffffffffff16146040518060400160405280600681526020017f3031383030310000000000000000000000000000000000000000000000000000815250906108d2576040517f08c379a00000000000000000000000000000000000000000000000000000000081526004016108c99190611bbc565b60405180910390fd5b506127108111156108e257600080fd5b8060028190555050565b600080600080600080600060036000898152602001908152602001600020905061091581611655565b61091e57600080fd5b8060000160009054906101000a900473ffffffffffffffffffffffffffffffffffffffff168160010160009054906101000a90046fffffffffffffffffffffffffffffffff168260010160109054906101000a90046fffffffffffffffffffffffffffffffff168360020160009054906101000a900467ffffffffffffffff168460020160089054906101000a900467ffffffffffffffff168560020160109054906101000a900461ffff16846fffffffffffffffffffffffffffffffff169450836fffffffffffffffffffffffffffffffff1693508267ffffffffffffffff1692508167ffffffffffffffff1691508061ffff1690509650965096509650965096505091939550919395565b60025481565b60008060009054906101000a900473ffffffffffffffffffffffffffffffffffffffff1673ffffffffffffffffffffffffffffffffffffffff163373ffffffffffffffffffffffffffffffffffffffff16146040518060400160405280600681526020017f303138303031000000000000000000000000000000000000000000000000000081525090610afa576040517f08c379a0000000000000000000000000000000000000000000000000000000008152600401610af19190611bbc565b60405180910390fd5b50600060149054906101000a900460ff1615610b1557600080fd5b6001600060146101000a81548160ff0219169083151502179055507f6985a02210a168e66602d3235cb6db0e70f92b3ba4d376a33c0f3d9434bff62560405160405180910390a16001905090565b600460009054906101000a900460ff1681565b6040518060400160405280600681526020017f303138303032000000000000000000000000000000000000000000000000000081525081565b600060149054906101000a900460ff16610bc857600080fd5b60008054906101000a900473ffffffffffffffffffffffffffffffffffffffff1673ffffffffffffffffffffffffffffffffffffffff163373ffffffffffffffffffffffffffffffffffffffff16146040518060400160405280600681526020017f303138303031000000000000000000000000000000000000000000000000000081525090610c8e576040517f08c379a0000000000000000000000000000000000000000000000000000000008152600401610c859190611bbc565b60405180910390fd5b506000600360008381526020019081526020016000209050610caf81611655565b610cb857600080fd5b610ce6828260000160009054906101000a900473ffffffffffffffffffffffffffffffffffffffff16611683565b5050565b60008054906101000a900473ffffffffffffffffffffffffffffffffffffffff1681565b6000600360008381526020019081526020016000209050610d2e81611655565b610d3757600080fd5b60008160000160009054906101000a900473ffffffffffffffffffffffffffffffffffffffff1690508073ffffffffffffffffffffffffffffffffffffffff163373ffffffffffffffffffffffffffffffffffffffff1614610d9857600080fd5b610da28382611683565b505050565b600080600360008481526020019081526020016000209050610dc881611655565b610dd157600080fd5b610dda816116d2565b915050919050565b600160009054906101000a900473ffffffffffffffffffffffffffffffffffffffff1681565b60008054906101000a900473ffffffffffffffffffffffffffffffffffffffff1673ffffffffffffffffffffffffffffffffffffffff163373ffffffffffffffffffffffffffffffffffffffff16146040518060400160405280600681526020017f303138303031000000000000000000000000000000000000000000000000000081525090610ece576040517f08c379a0000000000000000000000000000000000000000000000000000000008152600401610ec59190611bbc565b60405180910390fd5b50600073ffffffffffffffffffffffffffffffffffffffff168173ffffffffffffffffffffffffffffffffffffffff1614156040518060400160405280600681526020017f303138303032000000000000000000000000000000000000000000000000000081525090610f77576040517f08c379a0000000000000000000000000000000000000000000000000000000008152600401610f6e9190611bbc565b60405180910390fd5b508073ffffffffffffffffffffffffffffffffffffffff1660008054906101000a900473ffffffffffffffffffffffffffffffffffffffff1673ffffffffffffffffffffffffffffffffffffffff167f8be0079c531659141344cd1fd0a4f28419497f9722a3daafe3b4186f6b6457e060405160405180910390a3806000806101000a81548173ffffffffffffffffffffffffffffffffffffffff021916908373ffffffffffffffffffffffffffffffffffffffff16021790555050565b6040518060400160405280600681526020017f303138303031000000000000000000000000000000000000000000000000000081525081565b60008273ffffffffffffffffffffffffffffffffffffffff16600160009054906101000a900473ffffffffffffffffffffffffffffffffffffffff1673ffffffffffffffffffffffffffffffffffffffff16636352211e846040518263ffffffff1660e01b81526004016110e29190611bde565b60206040518083038186803b1580156110fa57600080fd5b505afa15801561110e573d6000803e3d6000fd5b505050506040513d601f19601f820116820180604052508101906111329190611989565b73ffffffffffffffffffffffffffffffffffffffff1614905092915050565b600160009054906101000a900473ffffffffffffffffffffffffffffffffffffffff1673ffffffffffffffffffffffffffffffffffffffff166323b872dd8330846040518463ffffffff1660e01b81526004016111b093929190611aee565b600060405180830381600087803b1580156111ca57600080fd5b505af11580156111de573d6000803e3d6000fd5b505050505050565b603c816060015167ffffffffffffffff16101561120257600080fd5b806003600084815260200190815260200160002060008201518160000160006101000a81548173ffffffffffffffffffffffffffffffffffffffff021916908373ffffffffffffffffffffffffffffffffffffffff16021790555060208201518160010160006101000a8154816fffffffffffffffffffffffffffffffff02191690836fffffffffffffffffffffffffffffffff16021790555060408201518160010160106101000a8154816fffffffffffffffffffffffffffffffff02191690836fffffffffffffffffffffffffffffffff16021790555060608201518160020160006101000a81548167ffffffffffffffff021916908367ffffffffffffffff16021790555060808201518160020160086101000a81548167ffffffffffffffff021916908367ffffffffffffffff16021790555060a08201518160020160106101000a81548161ffff021916908361ffff1602179055509050507f8867cbc05eea5a895d1a2e08b969e1284f9aa3f38535dacee9b49baa35c61da78282602001516fffffffffffffffffffffffffffffffff1683604001516fffffffffffffffffffffffffffffffff16846060015167ffffffffffffffff168560a0015161ffff166040516113d8959493929190611c30565b60405180910390a15050565b60008060036000858152602001908152602001600020905061140581611655565b61140e57600080fd5b6000611419826116d2565b90508084101561142857600080fd5b60008260000160009054906101000a900473ffffffffffffffffffffffffffffffffffffffff1690503373ffffffffffffffffffffffffffffffffffffffff168173ffffffffffffffffffffffffffffffffffffffff16141561148a57600080fd5b60008360020160109054906101000a900461ffff1661ffff1690506114ae876117ce565b600083111561151f5760006114c3848361189f565b9050600081856114d39190611fd3565b90508373ffffffffffffffffffffffffffffffffffffffff166108fc829081150290604051600060405180830381858888f1935050505015801561151b573d6000803e3d6000fd5b5050505b6000838761152d9190611fd3565b90503373ffffffffffffffffffffffffffffffffffffffff166108fc829081150290604051600060405180830381858888f19350505050158015611575573d6000803e3d6000fd5b507f4fcc30d90a842164dd58501ab874a101a3749c3d4747139cefe7c876f4ccebd28885336040516115a993929190611bf9565b60405180910390a1839550505050505092915050565b600160009054906101000a900473ffffffffffffffffffffffffffffffffffffffff1673ffffffffffffffffffffffffffffffffffffffff166323b872dd8484846040518463ffffffff1660e01b815260040161161e93929190611aee565b600060405180830381600087803b15801561163857600080fd5b505af115801561164c573d6000803e3d6000fd5b50505050505050565b6000808260020160089054906101000a900467ffffffffffffffff1667ffffffffffffffff16119050919050565b61168c826117ce565b6116973082846115bf565b7f2809c7e17bf978fbc7194c0a694b638c4215e9140cacc6c38ca36010b45697df826040516116c69190611bde565b60405180910390a15050565b600080600090508260020160089054906101000a900467ffffffffffffffff1667ffffffffffffffff16421115611734578260020160089054906101000a900467ffffffffffffffff1667ffffffffffffffff16426117319190611fd3565b90505b6117c68360010160009054906101000a90046fffffffffffffffffffffffffffffffff166fffffffffffffffffffffffffffffffff168460010160109054906101000a90046fffffffffffffffffffffffffffffffff166fffffffffffffffffffffffffffffffff168560020160009054906101000a900467ffffffffffffffff1667ffffffffffffffff16846118c2565b915050919050565b60036000828152602001908152602001600020600080820160006101000a81549073ffffffffffffffffffffffffffffffffffffffff02191690556001820160006101000a8154906fffffffffffffffffffffffffffffffff02191690556001820160106101000a8154906fffffffffffffffffffffffffffffffff02191690556002820160006101000a81549067ffffffffffffffff02191690556002820160086101000a81549067ffffffffffffffff02191690556002820160106101000a81549061ffff0219169055505050565b600061271082846118b09190611ee5565b6118ba9190611d9d565b905092915050565b60008282106118d357839050611915565b600085856118e19190611f3f565b905060008484836118f29190611dce565b6118fc9190611d33565b90506000818861190c9190611c9f565b90508093505050505b949350505050565b60008135905061192c81612136565b92915050565b60008151905061194181612136565b92915050565b6000813590506119568161214d565b92915050565b60006020828403121561197257611971612120565b5b60006119808482850161191d565b91505092915050565b60006020828403121561199f5761199e612120565b5b60006119ad84828501611932565b91505092915050565b6000602082840312156119cc576119cb612120565b5b60006119da84828501611947565b91505092915050565b600080600080600060a086880312156119ff576119fe612120565b5b6000611a0d88828901611947565b9550506020611a1e88828901611947565b9450506040611a2f88828901611947565b9350506060611a4088828901611947565b9250506080611a518882890161191d565b9150509295509295909350565b611a6781612007565b82525050565b611a7681612019565b82525050565b611a8581612059565b82525050565b6000611a9682611c83565b611aa08185611c8e565b9350611ab081856020860161208f565b611ab981612125565b840191505092915050565b611acd8161204f565b82525050565b6000602082019050611ae86000830184611a5e565b92915050565b6000606082019050611b036000830186611a5e565b611b106020830185611a5e565b611b1d6040830184611ac4565b949350505050565b600060c082019050611b3a6000830189611a5e565b611b476020830188611ac4565b611b546040830187611ac4565b611b616060830186611ac4565b611b6e6080830185611ac4565b611b7b60a0830184611ac4565b979650505050505050565b6000602082019050611b9b6000830184611a6d565b92915050565b6000602082019050611bb66000830184611a7c565b92915050565b60006020820190508181036000830152611bd68184611a8b565b905092915050565b6000602082019050611bf36000830184611ac4565b92915050565b6000606082019050611c0e6000830186611ac4565b611c1b6020830185611ac4565b611c286040830184611a5e565b949350505050565b600060a082019050611c456000830188611ac4565b611c526020830187611ac4565b611c5f6040830186611ac4565b611c6c6060830185611ac4565b611c796080830184611ac4565b9695505050505050565b600081519050919050565b600082825260208201905092915050565b6000611caa82612025565b9150611cb583612025565b9250817f7fffffffffffffffffffffffffffffffffffffffffffffffffffffffffffffff03831360008312151615611cf057611cef6120c2565b5b817f8000000000000000000000000000000000000000000000000000000000000000038312600083121615611d2857611d276120c2565b5b828201905092915050565b6000611d3e82612025565b9150611d4983612025565b925082611d5957611d586120f1565b5b600160000383147f800000000000000000000000000000000000000000000000000000000000000083141615611d9257611d916120c2565b5b828205905092915050565b6000611da88261204f565b9150611db38361204f565b925082611dc357611dc26120f1565b5b828204905092915050565b6000611dd982612025565b9150611de483612025565b9250827f7fffffffffffffffffffffffffffffffffffffffffffffffffffffffffffffff0482116000841360008413161615611e2357611e226120c2565b5b817f80000000000000000000000000000000000000000000000000000000000000000583126000841260008413161615611e6057611e5f6120c2565b5b827f80000000000000000000000000000000000000000000000000000000000000000582126000841360008412161615611e9d57611e9c6120c2565b5b827f7fffffffffffffffffffffffffffffffffffffffffffffffffffffffffffffff0582126000841260008412161615611eda57611ed96120c2565b5b828202905092915050565b6000611ef08261204f565b9150611efb8361204f565b9250817fffffffffffffffffffffffffffffffffffffffffffffffffffffffffffffffff0483118215151615611f3457611f336120c2565b5b828202905092915050565b6000611f4a82612025565b9150611f5583612025565b9250827f800000000000000000000000000000000000000000000000000000000000000001821260008412151615611f9057611f8f6120c2565b5b827f7fffffffffffffffffffffffffffffffffffffffffffffffffffffffffffffff018213600084121615611fc857611fc76120c2565b5b828203905092915050565b6000611fde8261204f565b9150611fe98361204f565b925082821015611ffc57611ffb6120c2565b5b828203905092915050565b60006120128261202f565b9050919050565b60008115159050919050565b6000819050919050565b600073ffffffffffffffffffffffffffffffffffffffff82169050919050565b6000819050919050565b60006120648261206b565b9050919050565b60006120768261207d565b9050919050565b60006120888261202f565b9050919050565b60005b838110156120ad578082015181840152602081019050612092565b838111156120bc576000848401525b50505050565b7f4e487b7100000000000000000000000000000000000000000000000000000000600052601160045260246000fd5b7f4e487b7100000000000000000000000000000000000000000000000000000000600052601260045260246000fd5b600080fd5b6000601f19601f8301169050919050565b61213f81612007565b811461214a57600080fd5b50565b6121568161204f565b811461216157600080fd5b5056fea2646970667358221220df83c7cfb22a4bb590794ff7521ee766376da2158f3e8ada392ffdd13165ca5064736f6c63430008070033",
  "immutableReferences": {},
  "source": "// SPDX-License-Identifier: MIT\npragma solidity ^0.8.7;\n\nimport \"./treeContract.sol\";\n\n/// @title Clock auction for non-fungible tokens.\n/// @dev Contains models, variables, and internal methods for the auction.\n/// @notice We omit a fallback function to prevent accidental sends to this contract.\ncontract SaleClockAuction is Pausable {\n\n    // Represents an auction on an NFT\n    struct Auction {\n        // Current owner of NFT\n        address seller;\n        // Price (in wei) at beginning of auction\n        uint128 startingPrice;\n        // Price (in wei) at end of auction\n        uint128 endingPrice;\n        // Duration (in seconds) of auction\n        uint64 duration;\n        // Time when auction started\n        // NOTE: 0 if this auction has been concluded\n        uint64 startedAt;\n        uint16 auctionOwnerCut;\n    }\n\n    // Reference to contract tracking NFT ownership\n    TreeContract public nonFungibleContract;\n\n    // Cut owner takes on each auction, measured in basis points (1/100 of a percent).\n    // Values 0-10,000 map to 0%-100%\n    uint256 public ownerCut;\n\n    // Map from token ID to their corresponding auction.\n    mapping (uint256 => Auction) tokenIdToAuction;\n\n    bytes4 constant InterfaceSignature_ERC721 = bytes4(0x80ac58cd);\n\n    // @dev Sanity check that allows us to ensure that we are pointing to the\n    //  right auction in our setSaleAuctionAddress() call.\n    bool public isSaleClockAuction = true;\n\n    /// @dev Constructor creates a reference to the NFT ownership contract\n    ///  and verifies the owner cut is in the valid range.\n    /// @param _nftAddress - address of a deployed contract implementing\n    ///  the Nonfungible Interface.\n    /// @param _cut - percent cut the owner takes on each auction, must be\n    ///  between 0-10,000.\n    constructor(address payable _nftAddress, uint16 _cut) {\n        require(_cut <= 10000);\n        ownerCut = _cut;\n\n        TreeContract candidateContract = TreeContract(_nftAddress);\n        require(candidateContract.supportsInterface(InterfaceSignature_ERC721));\n\n        nonFungibleContract = candidateContract;\n    }\n\n    event AuctionCreated(uint256 tokenId, uint256 startingPrice, uint256 endingPrice, uint256 duration, uint256 ownerCut);\n    event AuctionSuccessful(uint256 tokenId, uint256 totalPrice, address winner);\n    event AuctionCancelled(uint256 tokenId);\n\n    /// @param _ownerCut - percent cut the owner takes on each auction, must be\n    ///  between 0-10,000.\n    function setOwnerCut(uint256 _ownerCut) external onlyOwner {\n        require(_ownerCut <= 10000);\n        ownerCut = _ownerCut;\n    }\n\n    /// @dev Returns true if the claimant owns the token.\n    /// @param _claimant - Address claiming to own the token.\n    /// @param _tokenId - ID of token whose ownership to verify.\n    function _owns(address _claimant, uint256 _tokenId) internal view returns (bool) {\n        return (nonFungibleContract.ownerOf(_tokenId) == _claimant);\n    }\n\n    /// @dev Escrows the NFT, assigning ownership to this contract.\n    /// Throws if the escrow fails.\n    /// @param _owner - Current owner address of token to escrow.\n    /// @param _tokenId - ID of token whose approval to verify.\n    function _escrow(address _owner, uint256 _tokenId) internal {\n        // it will throw if transfer fails\n        nonFungibleContract.transferFrom(_owner, address(this), _tokenId);\n    }\n\n    /// @dev Transfers an NFT owned by this contract to another address.\n    /// Returns true if the transfer succeeds.\n    /// @param _from - Address from transfer NFT to.\n    /// @param _to - Address to transfer NFT to.\n    /// @param _tokenId - ID of token to transfer.\n    function _transfer(address _from, address _to, uint256 _tokenId) internal {\n        // it will throw if transfer fails\n        nonFungibleContract.transferFrom(_from, _to, _tokenId);\n    }\n\n    /// @dev Adds an auction to the list of open auctions. Also fires the\n    ///  AuctionCreated event.\n    /// @param _tokenId The ID of the token to be put on auction.\n    /// @param _auction Auction to add.\n    function _addAuction(uint256 _tokenId, Auction memory _auction) internal {\n        // Require that all auctions have a duration of\n        // at least one minute. (Keeps our math from getting hairy!)\n        require(_auction.duration >= 1 minutes);\n\n        tokenIdToAuction[_tokenId] = _auction;\n\n        emit AuctionCreated(\n            uint256(_tokenId),\n            uint256(_auction.startingPrice),\n            uint256(_auction.endingPrice),\n            uint256(_auction.duration),\n            uint256(_auction.auctionOwnerCut)\n        );\n    }\n\n    /// @dev Cancels an auction unconditionally.\n    function _cancelAuction(uint256 _tokenId, address _seller) internal {\n        _removeAuction(_tokenId);\n        _transfer(address(this), _seller, _tokenId);\n        emit AuctionCancelled(_tokenId);\n    }\n\n    /// @dev Computes the price and transfers winnings.\n    /// Does NOT transfer ownership of token.\n    function _bid(uint256 _tokenId, uint256 _bidAmount)\n        internal\n        returns (uint256)\n    {\n        // Get a reference to the auction struct\n        Auction storage auction = tokenIdToAuction[_tokenId];\n\n        // Explicitly check that this auction is currently live.\n        // (Because of how Ethereum mappings work, we can't just count\n        // on the lookup above failing. An invalid _tokenId will just\n        // return an auction object that is all zeros.)\n        require(_isOnAuction(auction));\n\n        // Check that the bid is greater than or equal to the current price\n        uint256 price = _currentPrice(auction);\n        require(_bidAmount >= price);\n\n        // Grab a reference to the seller before the auction struct\n        // gets deleted.\n        address seller = auction.seller;\n\n        require(seller != msg.sender);\n\n        uint256 _ownerCut = auction.auctionOwnerCut;\n\n        // The bid is good! Remove the auction before sending the fees\n        // to the sender so we can't have a reentrancy attack.\n        _removeAuction(_tokenId);\n\n        // Transfer proceeds to seller (if there are any!)\n        if (price > 0) {\n            // Calculate the auctioneer's cut.\n            // (NOTE: _computeCut() is guaranteed to return a\n            // value <= price, so this subtraction can't go negative.)\n            uint256 auctioneerCut = _computeCut(price, _ownerCut);\n            uint256 sellerProceeds = price - auctioneerCut;\n\n            // NOTE: Doing a transfer() in the middle of a complex\n            // method like this is generally discouraged because of\n            // reentrancy attacks and DoS attacks if the seller is\n            // a contract with an invalid fallback function. We explicitly\n            // guard against reentrancy attacks by removing the auction\n            // before calling transfer(), and the only thing the seller\n            // can DoS is the sale of their own asset! (And if it's an\n            // accident, they can call cancelAuction(). )\n            payable(seller).transfer(sellerProceeds);\n        }\n\n        // Calculate any excess funds included with the bid. If the excess\n        // is anything worth worrying about, transfer it back to bidder.\n        // NOTE: We checked above that the bid amount is greater than or\n        // equal to the price so this cannot underflow.\n        uint256 bidExcess = _bidAmount - price;\n\n        // Return the funds. Similar to the previous transfer, this is\n        // not susceptible to a re-entry attack because the auction is\n        // removed before any transfers occur.\n        payable(msg.sender).transfer(bidExcess);\n\n        // Tell the world!\n        emit AuctionSuccessful(_tokenId, price, msg.sender);\n\n        return price;\n    }\n\n    /// @dev Removes an auction from the list of open auctions.\n    /// @param _tokenId - ID of NFT on auction.\n    function _removeAuction(uint256 _tokenId) internal {\n        delete tokenIdToAuction[_tokenId];\n    }\n\n    /// @dev Returns true if the NFT is on auction.\n    /// @param _auction - Auction to check.\n    function _isOnAuction(Auction storage _auction) internal view returns (bool) {\n        return (_auction.startedAt > 0);\n    }\n\n    /// @dev Returns current price of an NFT on auction. Broken into two\n    ///  functions (this one, that computes the duration from the auction\n    ///  structure, and the other that does the price computation) so we\n    ///  can easily test that the price computation works correctly.\n    function _currentPrice(Auction storage _auction)\n        internal\n        view\n        returns (uint256)\n    {\n        uint256 secondsPassed = 0;\n\n        // A bit of insurance against negative values (or wraparound).\n        // Probably not necessary (since Ethereum guarnatees that the\n        // now variable doesn't ever go backwards).\n        if (block.timestamp > _auction.startedAt) {\n            secondsPassed = block.timestamp - _auction.startedAt;\n        }\n\n        return _computeCurrentPrice(\n            _auction.startingPrice,\n            _auction.endingPrice,\n            _auction.duration,\n            secondsPassed\n        );\n    }\n\n    /// @dev Computes the current price of an auction. Factored out\n    ///  from _currentPrice so we can run extensive unit tests.\n    ///  When testing, make this function public and turn on\n    ///  `Current price computation` test suite.\n    function _computeCurrentPrice(\n        uint256 _startingPrice,\n        uint256 _endingPrice,\n        uint256 _duration,\n        uint256 _secondsPassed\n    )\n        internal\n        pure\n        returns (uint256)\n    {\n        // NOTE: We don't use SafeMath (or similar) in this function because\n        //  all of our public functions carefully cap the maximum values for\n        //  time (at 64-bits) and currency (at 128-bits). _duration is\n        //  also known to be non-zero (see the require() statement in\n        //  _addAuction())\n        if (_secondsPassed >= _duration) {\n            // We've reached the end of the dynamic pricing portion\n            // of the auction, just return the end price.\n            return _endingPrice;\n        } else {\n            // Starting price can be higher than ending price (and often is!), so\n            // this delta can be negative.\n            int256 totalPriceChange = int256(_endingPrice) - int256(_startingPrice);\n\n            // This multiplication can't overflow, _secondsPassed will easily fit within\n            // 64-bits, and totalPriceChange will easily fit within 128-bits, their product\n            // will always fit within 256-bits.\n            int256 currentPriceChange = totalPriceChange * int256(_secondsPassed) / int256(_duration);\n\n            // currentPriceChange can be negative, but if so, will have a magnitude\n            // less that _startingPrice. Thus, this result will always end up positive.\n            int256 currentPrice = int256(_startingPrice) + currentPriceChange;\n\n            return uint256(currentPrice);\n        }\n    }\n\n    /// @dev Computes owner's cut of a sale.\n    /// @param _price - Sale price of NFT.\n    function _computeCut(uint256 _price, uint256 _auctionOwnerCut) internal pure returns (uint256) {\n        // NOTE: We don't use SafeMath (or similar) in this function because\n        //  all of our entry functions carefully cap the maximum values for\n        //  currency (at 128-bits), and ownerCut <= 10000 (see the require()\n        //  statement in the ClockAuction constructor). The result of this\n        //  function is always guaranteed to be <= _price.\n        return _price * _auctionOwnerCut / 10000;\n    }\n\n    /// @dev Remove all Ether from the contract, which is the owner's cuts\n    ///  as well as any Ether sent directly to the contract address.\n    ///  Always transfers to the NFT contract, but can be called either by\n    ///  the owner or the NFT contract.\n    function withdrawBalance() external {\n        address nftAddress = address(nonFungibleContract);\n\n        require(\n            msg.sender == owner ||\n            msg.sender == nftAddress\n        );\n\n        payable(nftAddress).transfer(address(this).balance);\n    }\n\n    /// @dev Creates and begins a new auction.\n    /// @param _tokenId - ID of token to auction, sender must be owner.\n    /// @param _startingPrice - Price of item (in wei) at beginning of auction.\n    /// @param _endingPrice - Price of item (in wei) at end of auction.\n    /// @param _duration - Length of time to move between starting\n    /// @param _seller - Seller, if not the message sender\n    function createAuction(\n        uint256 _tokenId,\n        uint256 _startingPrice,\n        uint256 _endingPrice,\n        uint256 _duration,\n        address _seller\n    )\n        external\n        whenNotPaused\n    {\n        // Sanity check that no inputs overflow how many bits we've allocated\n        // to store them in the auction struct.\n        require(_startingPrice == uint256(uint128(_startingPrice)));\n        require(_endingPrice == uint256(uint128(_endingPrice)));\n        require(_duration == uint256(uint64(_duration)));\n        require(_startingPrice >= _endingPrice);\n\n        require(msg.sender == address(nonFungibleContract));\n        require(_owns(_seller, _tokenId));\n        _escrow(_seller, _tokenId);\n\n        Auction memory auction = Auction(\n            _seller,\n            uint128(_startingPrice),\n            uint128(_endingPrice),\n            uint64(_duration),\n            uint64(block.timestamp),\n            uint16(ownerCut)\n        );\n        _addAuction(_tokenId, auction);\n    }\n\n    /// @dev Bids on an open auction, completing the auction and transferring\n    ///  ownership of the NFT if enough Ether is supplied.\n    /// @param _tokenId - ID of token to bid on.\n    function bid(uint256 _tokenId)\n        external\n        payable\n        whenNotPaused\n    {\n        // _bid will throw if the bid or funds transfer fails\n        _bid(_tokenId, msg.value);\n        _transfer(address(this), msg.sender, _tokenId);\n    }\n\n    /// @dev Cancels an auction that hasn't been won yet.\n    ///  Returns the NFT to original owner.\n    /// @notice This is a state-modifying function that can\n    ///  be called while the contract is paused.\n    /// @param _tokenId - ID of token on auction\n    function cancelAuction(uint256 _tokenId)\n        external\n    {\n        Auction storage auction = tokenIdToAuction[_tokenId];\n        require(_isOnAuction(auction));\n        address seller = auction.seller;\n        require(msg.sender == seller);\n        _cancelAuction(_tokenId, seller);\n    }\n\n    /// @dev Cancels an auction when the contract is paused.\n    ///  Only the owner may do this, and NFTs are returned to\n    ///  the seller. This should only be used in emergencies.\n    /// @param _tokenId - ID of the NFT on auction to cancel.\n    function cancelAuctionWhenPaused(uint256 _tokenId)\n        whenPaused\n        onlyOwner\n        external\n    {\n        Auction storage auction = tokenIdToAuction[_tokenId];\n        require(_isOnAuction(auction));\n        _cancelAuction(_tokenId, auction.seller);\n    }\n\n    /// @dev Returns auction info for an NFT on auction.\n    /// @param _tokenId - ID of NFT on auction.\n    function getAuction(uint256 _tokenId)\n        external\n        view\n        returns\n    (\n        address seller,\n        uint256 startingPrice,\n        uint256 endingPrice,\n        uint256 duration,\n        uint256 startedAt,\n        uint256 auctionOwnerCut\n    ) {\n        Auction storage auction = tokenIdToAuction[_tokenId];\n        require(_isOnAuction(auction));\n        return (\n            auction.seller,\n            auction.startingPrice,\n            auction.endingPrice,\n            auction.duration,\n            auction.startedAt,\n            auction.auctionOwnerCut\n        );\n    }\n\n    /// @dev Returns the current price of an auction.\n    /// @param _tokenId - ID of the token price we are checking.\n    function getCurrentPrice(uint256 _tokenId)\n        external\n        view\n        returns (uint256)\n    {\n        Auction storage auction = tokenIdToAuction[_tokenId];\n        require(_isOnAuction(auction));\n        return _currentPrice(auction);\n    }\n\n}\n",
  "sourcePath": "/home/niko/projects/digital_forest/kotov/smart_contract/contracts/tokens/auctionContract.sol",
  "compiler": {
    "name": "solc",
    "version": "0.8.7+commit.e28d00a7.Emscripten.clang"
  },
  "schemaVersion": "3.4.3",
  "updatedAt": "2021-12-15T14:28:48.969Z",
  "networkType": "ethereum",
  "devdoc": {
    "details": "Contains models, variables, and internal methods for the auction.",
    "kind": "dev",
    "methods": {
      "bid(uint256)": {
        "details": "Bids on an open auction, completing the auction and transferring  ownership of the NFT if enough Ether is supplied.",
        "params": {
          "_tokenId": "- ID of token to bid on."
        }
      },
      "cancelAuction(uint256)": {
        "details": "Cancels an auction that hasn't been won yet.  Returns the NFT to original owner.",
        "params": {
          "_tokenId": "- ID of token on auction"
        }
      },
      "cancelAuctionWhenPaused(uint256)": {
        "details": "Cancels an auction when the contract is paused.  Only the owner may do this, and NFTs are returned to  the seller. This should only be used in emergencies.",
        "params": {
          "_tokenId": "- ID of the NFT on auction to cancel."
        }
      },
      "constructor": {
        "details": "Constructor creates a reference to the NFT ownership contract  and verifies the owner cut is in the valid range.",
        "params": {
          "_cut": "- percent cut the owner takes on each auction, must be  between 0-10,000.",
          "_nftAddress": "- address of a deployed contract implementing  the Nonfungible Interface."
        }
      },
      "createAuction(uint256,uint256,uint256,uint256,address)": {
        "details": "Creates and begins a new auction.",
        "params": {
          "_duration": "- Length of time to move between starting",
          "_endingPrice": "- Price of item (in wei) at end of auction.",
          "_seller": "- Seller, if not the message sender",
          "_startingPrice": "- Price of item (in wei) at beginning of auction.",
          "_tokenId": "- ID of token to auction, sender must be owner."
        }
      },
      "getAuction(uint256)": {
        "details": "Returns auction info for an NFT on auction.",
        "params": {
          "_tokenId": "- ID of NFT on auction."
        }
      },
      "getCurrentPrice(uint256)": {
        "details": "Returns the current price of an auction.",
        "params": {
          "_tokenId": "- ID of the token price we are checking."
        }
      },
      "pause()": {
        "details": "called by the owner to pause, triggers stopped state"
      },
      "setOwnerCut(uint256)": {
        "params": {
          "_ownerCut": "- percent cut the owner takes on each auction, must be  between 0-10,000."
        }
      },
      "transferOwnership(address)": {
        "details": "Allows the current owner to transfer control of the contract to a newOwner.",
        "params": {
          "_newOwner": "The address to transfer ownership to."
        }
      },
      "unpause()": {
        "details": "called by the owner to unpause, returns to normal state"
      },
      "withdrawBalance()": {
        "details": "Remove all Ether from the contract, which is the owner's cuts  as well as any Ether sent directly to the contract address.  Always transfers to the NFT contract, but can be called either by  the owner or the NFT contract."
      }
    },
    "title": "Clock auction for non-fungible tokens.",
    "version": 1
  },
  "userdoc": {
    "kind": "user",
    "methods": {
      "cancelAuction(uint256)": {
        "notice": "This is a state-modifying function that can  be called while the contract is paused."
      }
    },
    "notice": "We omit a fallback function to prevent accidental sends to this contract.",
    "version": 1
  }
}