{
  "contractName": "TreeContract",
  "abi": [
    {
      "anonymous": false,
      "inputs": [
        {
          "indexed": true,
          "internalType": "address",
          "name": "_owner",
          "type": "address"
        },
        {
          "indexed": true,
          "internalType": "address",
          "name": "_approved",
          "type": "address"
        },
        {
          "indexed": true,
          "internalType": "uint256",
          "name": "_tokenId",
          "type": "uint256"
        }
      ],
      "name": "Approval",
      "type": "event"
    },
    {
      "anonymous": false,
      "inputs": [
        {
          "indexed": true,
          "internalType": "address",
          "name": "_owner",
          "type": "address"
        },
        {
          "indexed": true,
          "internalType": "address",
          "name": "_operator",
          "type": "address"
        },
        {
          "indexed": false,
          "internalType": "bool",
          "name": "_approved",
          "type": "bool"
        }
      ],
      "name": "ApprovalForAll",
      "type": "event"
    },
    {
      "anonymous": false,
      "inputs": [
        {
          "indexed": false,
          "internalType": "address",
          "name": "owner",
          "type": "address"
        },
        {
          "indexed": false,
          "internalType": "uint64",
          "name": "treeId",
          "type": "uint64"
        }
      ],
      "name": "Creation",
      "type": "event"
    },
    {
      "anonymous": false,
      "inputs": [
        {
          "indexed": true,
          "internalType": "address",
          "name": "previousOwner",
          "type": "address"
        },
        {
          "indexed": true,
          "internalType": "address",
          "name": "newOwner",
          "type": "address"
        }
      ],
      "name": "OwnershipTransferred",
      "type": "event"
    },
    {
      "anonymous": false,
      "inputs": [],
      "name": "Pause",
      "type": "event"
    },
    {
      "anonymous": false,
      "inputs": [
        {
          "indexed": true,
          "internalType": "address",
          "name": "_from",
          "type": "address"
        },
        {
          "indexed": true,
          "internalType": "address",
          "name": "_to",
          "type": "address"
        },
        {
          "indexed": true,
          "internalType": "uint256",
          "name": "_tokenId",
          "type": "uint256"
        }
      ],
      "name": "Transfer",
      "type": "event"
    },
    {
      "anonymous": false,
      "inputs": [],
      "name": "Unpause",
      "type": "event"
    },
    {
      "inputs": [],
      "name": "CANNOT_TRANSFER_TO_ZERO_ADDRESS",
      "outputs": [
        {
          "internalType": "string",
          "name": "",
          "type": "string"
        }
      ],
      "stateMutability": "view",
      "type": "function",
      "constant": true
    },
    {
      "inputs": [],
      "name": "NOT_CURRENT_OWNER",
      "outputs": [
        {
          "internalType": "string",
          "name": "",
          "type": "string"
        }
      ],
      "stateMutability": "view",
      "type": "function",
      "constant": true
    },
    {
      "inputs": [
        {
          "internalType": "address",
          "name": "_approved",
          "type": "address"
        },
        {
          "internalType": "uint256",
          "name": "_tokenId",
          "type": "uint256"
        }
      ],
      "name": "approve",
      "outputs": [],
      "stateMutability": "nonpayable",
      "type": "function"
    },
    {
      "inputs": [
        {
          "internalType": "address",
          "name": "_owner",
          "type": "address"
        }
      ],
      "name": "balanceOf",
      "outputs": [
        {
          "internalType": "uint256",
          "name": "",
          "type": "uint256"
        }
      ],
      "stateMutability": "view",
      "type": "function",
      "constant": true
    },
    {
      "inputs": [
        {
          "internalType": "uint256",
          "name": "_tokenId",
          "type": "uint256"
        }
      ],
      "name": "getApproved",
      "outputs": [
        {
          "internalType": "address",
          "name": "",
          "type": "address"
        }
      ],
      "stateMutability": "view",
      "type": "function",
      "constant": true
    },
    {
      "inputs": [
        {
          "internalType": "address",
          "name": "_owner",
          "type": "address"
        },
        {
          "internalType": "address",
          "name": "_operator",
          "type": "address"
        }
      ],
      "name": "isApprovedForAll",
      "outputs": [
        {
          "internalType": "bool",
          "name": "",
          "type": "bool"
        }
      ],
      "stateMutability": "view",
      "type": "function",
      "constant": true
    },
    {
      "inputs": [],
      "name": "owner",
      "outputs": [
        {
          "internalType": "address",
          "name": "",
          "type": "address"
        }
      ],
      "stateMutability": "view",
      "type": "function",
      "constant": true
    },
    {
      "inputs": [
        {
          "internalType": "uint256",
          "name": "_tokenId",
          "type": "uint256"
        }
      ],
      "name": "ownerOf",
      "outputs": [
        {
          "internalType": "address",
          "name": "_owner",
          "type": "address"
        }
      ],
      "stateMutability": "view",
      "type": "function",
      "constant": true
    },
    {
      "inputs": [],
      "name": "pause",
      "outputs": [
        {
          "internalType": "bool",
          "name": "",
          "type": "bool"
        }
      ],
      "stateMutability": "nonpayable",
      "type": "function"
    },
    {
      "inputs": [],
      "name": "paused",
      "outputs": [
        {
          "internalType": "bool",
          "name": "",
          "type": "bool"
        }
      ],
      "stateMutability": "view",
      "type": "function",
      "constant": true
    },
    {
      "inputs": [
        {
          "internalType": "address",
          "name": "_from",
          "type": "address"
        },
        {
          "internalType": "address",
          "name": "_to",
          "type": "address"
        },
        {
          "internalType": "uint256",
          "name": "_tokenId",
          "type": "uint256"
        }
      ],
      "name": "safeTransferFrom",
      "outputs": [],
      "stateMutability": "nonpayable",
      "type": "function"
    },
    {
      "inputs": [
        {
          "internalType": "address",
          "name": "_from",
          "type": "address"
        },
        {
          "internalType": "address",
          "name": "_to",
          "type": "address"
        },
        {
          "internalType": "uint256",
          "name": "_tokenId",
          "type": "uint256"
        },
        {
          "internalType": "bytes",
          "name": "_data",
          "type": "bytes"
        }
      ],
      "name": "safeTransferFrom",
      "outputs": [],
      "stateMutability": "nonpayable",
      "type": "function"
    },
    {
      "inputs": [],
      "name": "saleAuction",
      "outputs": [
        {
          "internalType": "contract SaleClockAuction",
          "name": "",
          "type": "address"
        }
      ],
      "stateMutability": "view",
      "type": "function",
      "constant": true
    },
    {
      "inputs": [
        {
          "internalType": "address",
          "name": "_operator",
          "type": "address"
        },
        {
          "internalType": "bool",
          "name": "_approved",
          "type": "bool"
        }
      ],
      "name": "setApprovalForAll",
      "outputs": [],
      "stateMutability": "nonpayable",
      "type": "function"
    },
    {
      "inputs": [
        {
          "internalType": "bytes4",
          "name": "_interfaceID",
          "type": "bytes4"
        }
      ],
      "name": "supportsInterface",
      "outputs": [
        {
          "internalType": "bool",
          "name": "",
          "type": "bool"
        }
      ],
      "stateMutability": "view",
      "type": "function",
      "constant": true
    },
    {
      "inputs": [
        {
          "internalType": "uint256",
          "name": "_index",
          "type": "uint256"
        }
      ],
      "name": "tokenByIndex",
      "outputs": [
        {
          "internalType": "uint256",
          "name": "",
          "type": "uint256"
        }
      ],
      "stateMutability": "view",
      "type": "function",
      "constant": true
    },
    {
      "inputs": [
        {
          "internalType": "address",
          "name": "_owner",
          "type": "address"
        },
        {
          "internalType": "uint256",
          "name": "_index",
          "type": "uint256"
        }
      ],
      "name": "tokenOfOwnerByIndex",
      "outputs": [
        {
          "internalType": "uint256",
          "name": "",
          "type": "uint256"
        }
      ],
      "stateMutability": "view",
      "type": "function",
      "constant": true
    },
    {
      "inputs": [],
      "name": "totalSupply",
      "outputs": [
        {
          "internalType": "uint256",
          "name": "",
          "type": "uint256"
        }
      ],
      "stateMutability": "view",
      "type": "function",
      "constant": true
    },
    {
      "inputs": [
        {
          "internalType": "address",
          "name": "_from",
          "type": "address"
        },
        {
          "internalType": "address",
          "name": "_to",
          "type": "address"
        },
        {
          "internalType": "uint256",
          "name": "_tokenId",
          "type": "uint256"
        }
      ],
      "name": "transferFrom",
      "outputs": [],
      "stateMutability": "nonpayable",
      "type": "function"
    },
    {
      "inputs": [
        {
          "internalType": "address",
          "name": "_newOwner",
          "type": "address"
        }
      ],
      "name": "transferOwnership",
      "outputs": [],
      "stateMutability": "nonpayable",
      "type": "function"
    },
    {
      "inputs": [],
      "name": "treeCost",
      "outputs": [
        {
          "internalType": "uint256",
          "name": "",
          "type": "uint256"
        }
      ],
      "stateMutability": "view",
      "type": "function",
      "constant": true
    },
    {
      "inputs": [],
      "name": "unpause",
      "outputs": [
        {
          "internalType": "bool",
          "name": "",
          "type": "bool"
        }
      ],
      "stateMutability": "nonpayable",
      "type": "function"
    },
    {
      "stateMutability": "payable",
      "type": "receive",
      "payable": true
    },
    {
      "inputs": [
        {
          "internalType": "address payable",
          "name": "_to",
          "type": "address"
        },
        {
          "internalType": "uint256",
          "name": "_amount",
          "type": "uint256"
        }
      ],
      "name": "withdrawBalance",
      "outputs": [],
      "stateMutability": "nonpayable",
      "type": "function"
    },
    {
      "inputs": [
        {
          "internalType": "uint256",
          "name": "_treeCost",
          "type": "uint256"
        }
      ],
      "name": "setTreeCost",
      "outputs": [],
      "stateMutability": "nonpayable",
      "type": "function"
    },
    {
      "inputs": [
        {
          "internalType": "uint8[14][24]",
          "name": "_dna",
          "type": "uint8[14][24]"
        },
        {
          "internalType": "uint64",
          "name": "_generation",
          "type": "uint64"
        },
        {
          "internalType": "uint32",
          "name": "_matronId",
          "type": "uint32"
        },
        {
          "internalType": "uint32",
          "name": "_sireId",
          "type": "uint32"
        }
      ],
      "name": "createTree",
      "outputs": [],
      "stateMutability": "nonpayable",
      "type": "function"
    },
    {
      "inputs": [],
      "name": "treeCount",
      "outputs": [
        {
          "internalType": "uint256",
          "name": "",
          "type": "uint256"
        }
      ],
      "stateMutability": "view",
      "type": "function",
      "constant": true
    },
    {
      "inputs": [
        {
          "internalType": "address",
          "name": "_address",
          "type": "address"
        }
      ],
      "name": "setSaleAuctionAddress",
      "outputs": [],
      "stateMutability": "nonpayable",
      "type": "function"
    },
    {
      "inputs": [],
      "name": "withdrawAuctionBalance",
      "outputs": [],
      "stateMutability": "nonpayable",
      "type": "function"
    },
    {
      "inputs": [
        {
          "internalType": "uint256",
          "name": "_tokenId",
          "type": "uint256"
        },
        {
          "internalType": "uint256",
          "name": "_startingPrice",
          "type": "uint256"
        },
        {
          "internalType": "uint256",
          "name": "_endingPrice",
          "type": "uint256"
        },
        {
          "internalType": "uint256",
          "name": "_duration",
          "type": "uint256"
        }
      ],
      "name": "createAuction",
      "outputs": [],
      "stateMutability": "nonpayable",
      "type": "function"
    },
    {
      "inputs": [
        {
          "internalType": "uint64",
          "name": "_id",
          "type": "uint64"
        }
      ],
      "name": "getTreeData",
      "outputs": [
        {
          "internalType": "uint64",
          "name": "",
          "type": "uint64"
        },
        {
          "internalType": "uint64",
          "name": "",
          "type": "uint64"
        },
        {
          "internalType": "uint8[14][24]",
          "name": "",
          "type": "uint8[14][24]"
        }
      ],
      "stateMutability": "view",
      "type": "function",
      "constant": true
    }
  ],
  "bytecode": "0x60806040526000600960146101000a81548160ff02191690831515021790555066038d7ea4c68000600b5534801561003657600080fd5b5060016000806301ffc9a760e01b7bffffffffffffffffffffffffffffffffffffffffffffffffffffffff1916815260200190815260200160002060006101000a81548160ff02191690831515021790555060016000806380ac58cd60e01b7bffffffffffffffffffffffffffffffffffffffffffffffffffffffff1916815260200190815260200160002060006101000a81548160ff021916908315150217905550600160008063780e9d6360e01b7bffffffffffffffffffffffffffffffffffffffffffffffffffffffff1916815260200190815260200160002060006101000a81548160ff02191690831515021790555033600960006101000a81548173ffffffffffffffffffffffffffffffffffffffff021916908373ffffffffffffffffffffffffffffffffffffffff1602179055506145f88061017a6000396000f3fe6080604052600436106101d15760003560e01c806370a08231116100f7578063b88d4fde11610095578063f2fde38b11610064578063f2fde38b146106a5578063f3fe3bc3146106ce578063fc7c082c146106f9578063fea3b6c314610724576101d8565b8063b88d4fde146105fd578063d8eb3a9814610626578063e6cbe3511461063d578063e985e9c514610668576101d8565b80638aa1abe8116100d15780638aa1abe8146105575780638da5cb5b14610580578063a22cb465146105ab578063ae1d018d146105d4576101d8565b806370a08231146104c45780638456cb5914610501578063860d248a1461052c576101d8565b80632f745c591161016f5780634f6ccce71161013e5780634f6ccce7146103f65780635c975abb146104335780636352211e1461045e5780636fbde40d1461049b576101d8565b80632f745c591461033c5780633f4ba83a1461037957806342842e0e146103a4578063431f21da146103cd576101d8565b8063095ea7b3116101ab578063095ea7b3146102965780630cf20cc9146102bf57806318160ddd146102e857806323b872dd14610313576101d8565b806301bb503e146101dd57806301ffc9a71461021c578063081812fc14610259576101d8565b366101d857005b600080fd5b3480156101e957600080fd5b5061020460048036038101906101ff9190613d74565b61074f565b604051610213939291906140e5565b60405180910390f35b34801561022857600080fd5b50610243600480360381019061023e9190613c86565b6109cd565b6040516102509190613fff565b60405180910390f35b34801561026557600080fd5b50610280600480360381019061027b9190613ce0565b610a34565b60405161028d9190613f6f565b60405180910390f35b3480156102a257600080fd5b506102bd60048036038101906102b89190613bae565b610b4f565b005b3480156102cb57600080fd5b506102e660048036038101906102e19190613a13565b610f32565b005b3480156102f457600080fd5b506102fd611080565b60405161030a9190614077565b60405180910390f35b34801561031f57600080fd5b5061033a60048036038101906103359190613a93565b61108d565b005b34801561034857600080fd5b50610363600480360381019061035e9190613bae565b6114df565b6040516103709190614077565b60405180910390f35b34801561038557600080fd5b5061038e611602565b60405161039b9190613fff565b60405180910390f35b3480156103b057600080fd5b506103cb60048036038101906103c69190613a93565b611734565b005b3480156103d957600080fd5b506103f460048036038101906103ef9190613d0d565b611754565b005b34801561040257600080fd5b5061041d60048036038101906104189190613ce0565b611935565b60405161042a9190614077565b60405180910390f35b34801561043f57600080fd5b506104486119dd565b6040516104559190613fff565b60405180910390f35b34801561046a57600080fd5b5061048560048036038101906104809190613ce0565b6119f0565b6040516104929190613f6f565b60405180910390f35b3480156104a757600080fd5b506104c260048036038101906104bd91906139e6565b611ad6565b005b3480156104d057600080fd5b506104eb60048036038101906104e691906139e6565b611c70565b6040516104f89190614077565b60405180910390f35b34801561050d57600080fd5b50610516611d2a565b6040516105239190613fff565b60405180910390f35b34801561053857600080fd5b50610541611e5d565b60405161054e9190614035565b60405180910390f35b34801561056357600080fd5b5061057e60048036038101906105799190613ce0565b611e96565b005b34801561058c57600080fd5b50610595611f69565b6040516105a29190613f6f565b60405180910390f35b3480156105b757600080fd5b506105d260048036038101906105cd9190613b6e565b611f8f565b005b3480156105e057600080fd5b506105fb60048036038101906105f69190613bee565b61208c565b005b34801561060957600080fd5b50610624600480360381019061061f9190613ae6565b61209f565b005b34801561063257600080fd5b5061063b6120f6565b005b34801561064957600080fd5b50610652612243565b60405161065f919061401a565b60405180910390f35b34801561067457600080fd5b5061068f600480360381019061068a9190613a53565b612269565b60405161069c9190613fff565b60405180910390f35b3480156106b157600080fd5b506106cc60048036038101906106c791906139e6565b6122fd565b005b3480156106da57600080fd5b506106e361252f565b6040516106f09190614035565b60405180910390f35b34801561070557600080fd5b5061070e612568565b60405161071b9190614077565b60405180910390f35b34801561073057600080fd5b5061073961256e565b6040516107469190614077565b60405180910390f35b60008061075a613617565b6000600660008667ffffffffffffffff16815260200190815260200160002054905060058054905081106040518060400160405280600681526020017f3030353030370000000000000000000000000000000000000000000000000000815250906107fb576040517f08c379a00000000000000000000000000000000000000000000000000000000081526004016107f29190614035565b60405180910390fd5b506000600c828154811061081257610811614459565b5b90600052602060002090601a02016040518060c00160405290816000820160009054906101000a900467ffffffffffffffff1667ffffffffffffffff1667ffffffffffffffff1681526020016000820160089054906101000a900467ffffffffffffffff1667ffffffffffffffff1667ffffffffffffffff16815260200160018201601880602002604051908101604052809291906000905b8282101561092757838201600e806020026040519081016040528092919082600e8015610913576020028201916000905b82829054906101000a900460ff1660ff16815260200190600101906020826000010492830192600103820291508084116108dc5790505b5050505050815260200190600101906108ab565b5050505081526020016019820160009054906101000a900467ffffffffffffffff1667ffffffffffffffff1667ffffffffffffffff1681526020016019820160089054906101000a900463ffffffff1663ffffffff1663ffffffff16815260200160198201600c9054906101000a900463ffffffff1663ffffffff1663ffffffff1681525050905080600001518160200151826040015194509450945050509193909250565b6000806000837bffffffffffffffffffffffffffffffffffffffffffffffffffffffff19167bffffffffffffffffffffffffffffffffffffffffffffffffffffffff1916815260200190815260200160002060009054906101000a900460ff169050919050565b600081600073ffffffffffffffffffffffffffffffffffffffff166001600083815260200190815260200160002060009054906101000a900473ffffffffffffffffffffffffffffffffffffffff1673ffffffffffffffffffffffffffffffffffffffff1614156040518060400160405280600681526020017f303033303032000000000000000000000000000000000000000000000000000081525090610b12576040517f08c379a0000000000000000000000000000000000000000000000000000000008152600401610b099190614035565b60405180910390fd5b506002600084815260200190815260200160002060009054906101000a900473ffffffffffffffffffffffffffffffffffffffff16915050919050565b8060006001600083815260200190815260200160002060009054906101000a900473ffffffffffffffffffffffffffffffffffffffff1690503373ffffffffffffffffffffffffffffffffffffffff168173ffffffffffffffffffffffffffffffffffffffff161480610c485750600460008273ffffffffffffffffffffffffffffffffffffffff1673ffffffffffffffffffffffffffffffffffffffff16815260200190815260200160002060003373ffffffffffffffffffffffffffffffffffffffff1673ffffffffffffffffffffffffffffffffffffffff16815260200190815260200160002060009054906101000a900460ff165b6040518060400160405280600681526020017f303033303033000000000000000000000000000000000000000000000000000081525090610cbf576040517f08c379a0000000000000000000000000000000000000000000000000000000008152600401610cb69190614035565b60405180910390fd5b5082600073ffffffffffffffffffffffffffffffffffffffff166001600083815260200190815260200160002060009054906101000a900473ffffffffffffffffffffffffffffffffffffffff1673ffffffffffffffffffffffffffffffffffffffff1614156040518060400160405280600681526020017f303033303032000000000000000000000000000000000000000000000000000081525090610d9c576040517f08c379a0000000000000000000000000000000000000000000000000000000008152600401610d939190614035565b60405180910390fd5b5060006001600086815260200190815260200160002060009054906101000a900473ffffffffffffffffffffffffffffffffffffffff1690508073ffffffffffffffffffffffffffffffffffffffff168673ffffffffffffffffffffffffffffffffffffffff1614156040518060400160405280600681526020017f303033303038000000000000000000000000000000000000000000000000000081525090610e7c576040517f08c379a0000000000000000000000000000000000000000000000000000000008152600401610e739190614035565b60405180910390fd5b50856002600087815260200190815260200160002060006101000a81548173ffffffffffffffffffffffffffffffffffffffff021916908373ffffffffffffffffffffffffffffffffffffffff160217905550848673ffffffffffffffffffffffffffffffffffffffff168273ffffffffffffffffffffffffffffffffffffffff167f8c5be1e5ebec7d5bd14f71427d1e84f3dd0314c0f7b2291e5b200ac8c7c3b92560405160405180910390a4505050505050565b600960009054906101000a900473ffffffffffffffffffffffffffffffffffffffff1673ffffffffffffffffffffffffffffffffffffffff163373ffffffffffffffffffffffffffffffffffffffff16146040518060400160405280600681526020017f303138303031000000000000000000000000000000000000000000000000000081525090610ffa576040517f08c379a0000000000000000000000000000000000000000000000000000000008152600401610ff19190614035565b60405180910390fd5b50600073ffffffffffffffffffffffffffffffffffffffff168273ffffffffffffffffffffffffffffffffffffffff16141561103557600080fd5b8173ffffffffffffffffffffffffffffffffffffffff166108fc829081150290604051600060405180830381858888f1935050505015801561107b573d6000803e3d6000fd5b505050565b6000600580549050905090565b8060006001600083815260200190815260200160002060009054906101000a900473ffffffffffffffffffffffffffffffffffffffff1690503373ffffffffffffffffffffffffffffffffffffffff168173ffffffffffffffffffffffffffffffffffffffff16148061115e57503373ffffffffffffffffffffffffffffffffffffffff166002600084815260200190815260200160002060009054906101000a900473ffffffffffffffffffffffffffffffffffffffff1673ffffffffffffffffffffffffffffffffffffffff16145b806111ef5750600460008273ffffffffffffffffffffffffffffffffffffffff1673ffffffffffffffffffffffffffffffffffffffff16815260200190815260200160002060003373ffffffffffffffffffffffffffffffffffffffff1673ffffffffffffffffffffffffffffffffffffffff16815260200190815260200160002060009054906101000a900460ff165b6040518060400160405280600681526020017f303033303034000000000000000000000000000000000000000000000000000081525090611266576040517f08c379a000000000000000000000000000000000000000000000000000000000815260040161125d9190614035565b60405180910390fd5b5082600073ffffffffffffffffffffffffffffffffffffffff166001600083815260200190815260200160002060009054906101000a900473ffffffffffffffffffffffffffffffffffffffff1673ffffffffffffffffffffffffffffffffffffffff1614156040518060400160405280600681526020017f303033303032000000000000000000000000000000000000000000000000000081525090611343576040517f08c379a000000000000000000000000000000000000000000000000000000000815260040161133a9190614035565b60405180910390fd5b5060006001600086815260200190815260200160002060009054906101000a900473ffffffffffffffffffffffffffffffffffffffff1690508673ffffffffffffffffffffffffffffffffffffffff168173ffffffffffffffffffffffffffffffffffffffff16146040518060400160405280600681526020017f303033303037000000000000000000000000000000000000000000000000000081525090611422576040517f08c379a00000000000000000000000000000000000000000000000000000000081526004016114199190614035565b60405180910390fd5b50600073ffffffffffffffffffffffffffffffffffffffff168673ffffffffffffffffffffffffffffffffffffffff1614156040518060400160405280600681526020017f3030333030310000000000000000000000000000000000000000000000000000815250906114cb576040517f08c379a00000000000000000000000000000000000000000000000000000000081526004016114c29190614035565b60405180910390fd5b506114d6868661257b565b50505050505050565b6000600760008473ffffffffffffffffffffffffffffffffffffffff1673ffffffffffffffffffffffffffffffffffffffff1681526020019081526020016000208054905082106040518060400160405280600681526020017f30303530303700000000000000000000000000000000000000000000000000008152509061159d576040517f08c379a00000000000000000000000000000000000000000000000000000000081526004016115949190614035565b60405180910390fd5b50600760008473ffffffffffffffffffffffffffffffffffffffff1673ffffffffffffffffffffffffffffffffffffffff16815260200190815260200160002082815481106115ef576115ee614459565b5b9060005260206000200154905092915050565b6000600960009054906101000a900473ffffffffffffffffffffffffffffffffffffffff1673ffffffffffffffffffffffffffffffffffffffff163373ffffffffffffffffffffffffffffffffffffffff16146040518060400160405280600681526020017f3031383030310000000000000000000000000000000000000000000000000000815250906116cc576040517f08c379a00000000000000000000000000000000000000000000000000000000081526004016116c39190614035565b60405180910390fd5b50600960149054906101000a900460ff166116e657600080fd5b6000600960146101000a81548160ff0219169083151502179055507f7805862f689e2f13df9f062ff482ad3ad112aca9e0847911ed832e158c525b3360405160405180910390a16001905090565b61174f83838360405180602001604052806000815250612630565b505050565b600960149054906101000a900460ff161561176e57600080fd5b3373ffffffffffffffffffffffffffffffffffffffff166001600086815260200190815260200160002060009054906101000a900473ffffffffffffffffffffffffffffffffffffffff1673ffffffffffffffffffffffffffffffffffffffff161461180f576040517f08c379a000000000000000000000000000000000000000000000000000000000815260040161180690614057565b60405180910390fd5b826fffffffffffffffffffffffffffffffff16831461182d57600080fd5b816fffffffffffffffffffffffffffffffff16821461184b57600080fd5b8067ffffffffffffffff16811461186157600080fd5b8183101561186e57600080fd5b61189a84600a60009054906101000a900473ffffffffffffffffffffffffffffffffffffffff16612bfe565b600a60009054906101000a900473ffffffffffffffffffffffffffffffffffffffff1673ffffffffffffffffffffffffffffffffffffffff166327ebe40a85858585336040518663ffffffff1660e01b81526004016118fd959493929190614092565b600060405180830381600087803b15801561191757600080fd5b505af115801561192b573d6000803e3d6000fd5b5050505050505050565b600060058054905082106040518060400160405280600681526020017f3030353030370000000000000000000000000000000000000000000000000000815250906119b6576040517f08c379a00000000000000000000000000000000000000000000000000000000081526004016119ad9190614035565b60405180910390fd5b50600582815481106119cb576119ca614459565b5b90600052602060002001549050919050565b600960149054906101000a900460ff1681565b60006001600083815260200190815260200160002060009054906101000a900473ffffffffffffffffffffffffffffffffffffffff169050600073ffffffffffffffffffffffffffffffffffffffff168173ffffffffffffffffffffffffffffffffffffffff1614156040518060400160405280600681526020017f303033303032000000000000000000000000000000000000000000000000000081525090611ad0576040517f08c379a0000000000000000000000000000000000000000000000000000000008152600401611ac79190614035565b60405180910390fd5b50919050565b600960009054906101000a900473ffffffffffffffffffffffffffffffffffffffff1673ffffffffffffffffffffffffffffffffffffffff163373ffffffffffffffffffffffffffffffffffffffff16146040518060400160405280600681526020017f303138303031000000000000000000000000000000000000000000000000000081525090611b9e576040517f08c379a0000000000000000000000000000000000000000000000000000000008152600401611b959190614035565b60405180910390fd5b5060008190508073ffffffffffffffffffffffffffffffffffffffff166385b861886040518163ffffffff1660e01b815260040160206040518083038186803b158015611bea57600080fd5b505afa158015611bfe573d6000803e3d6000fd5b505050506040513d601f19601f82011682018060405250810190611c229190613c59565b611c2b57600080fd5b80600a60006101000a81548173ffffffffffffffffffffffffffffffffffffffff021916908373ffffffffffffffffffffffffffffffffffffffff1602179055505050565b60008073ffffffffffffffffffffffffffffffffffffffff168273ffffffffffffffffffffffffffffffffffffffff1614156040518060400160405280600681526020017f303033303031000000000000000000000000000000000000000000000000000081525090611d19576040517f08c379a0000000000000000000000000000000000000000000000000000000008152600401611d109190614035565b60405180910390fd5b50611d2382612c54565b9050919050565b6000600960009054906101000a900473ffffffffffffffffffffffffffffffffffffffff1673ffffffffffffffffffffffffffffffffffffffff163373ffffffffffffffffffffffffffffffffffffffff16146040518060400160405280600681526020017f303138303031000000000000000000000000000000000000000000000000000081525090611df4576040517f08c379a0000000000000000000000000000000000000000000000000000000008152600401611deb9190614035565b60405180910390fd5b50600960149054906101000a900460ff1615611e0f57600080fd5b6001600960146101000a81548160ff0219169083151502179055507f6985a02210a168e66602d3235cb6db0e70f92b3ba4d376a33c0f3d9434bff62560405160405180910390a16001905090565b6040518060400160405280600681526020017f303138303032000000000000000000000000000000000000000000000000000081525081565b600960009054906101000a900473ffffffffffffffffffffffffffffffffffffffff1673ffffffffffffffffffffffffffffffffffffffff163373ffffffffffffffffffffffffffffffffffffffff16146040518060400160405280600681526020017f303138303031000000000000000000000000000000000000000000000000000081525090611f5e576040517f08c379a0000000000000000000000000000000000000000000000000000000008152600401611f559190614035565b60405180910390fd5b5080600b8190555050565b600960009054906101000a900473ffffffffffffffffffffffffffffffffffffffff1681565b80600460003373ffffffffffffffffffffffffffffffffffffffff1673ffffffffffffffffffffffffffffffffffffffff16815260200190815260200160002060008473ffffffffffffffffffffffffffffffffffffffff1673ffffffffffffffffffffffffffffffffffffffff16815260200190815260200160002060006101000a81548160ff0219169083151502179055508173ffffffffffffffffffffffffffffffffffffffff163373ffffffffffffffffffffffffffffffffffffffff167f17307eab39ab6107e8899845ad3d59bd9653f200f220920489ca2b5937696c31836040516120809190613fff565b60405180910390a35050565b6120998484848433612ca0565b50505050565b6120ef85858585858080601f016020809104026020016040519081016040528093929190818152602001838380828437600081840152601f19601f82011690508083019250505050505050612630565b5050505050565b600960009054906101000a900473ffffffffffffffffffffffffffffffffffffffff1673ffffffffffffffffffffffffffffffffffffffff163373ffffffffffffffffffffffffffffffffffffffff16146040518060400160405280600681526020017f3031383030310000000000000000000000000000000000000000000000000000815250906121be576040517f08c379a00000000000000000000000000000000000000000000000000000000081526004016121b59190614035565b60405180910390fd5b50600a60009054906101000a900473ffffffffffffffffffffffffffffffffffffffff1673ffffffffffffffffffffffffffffffffffffffff16635fd8c7106040518163ffffffff1660e01b8152600401600060405180830381600087803b15801561222957600080fd5b505af115801561223d573d6000803e3d6000fd5b50505050565b600a60009054906101000a900473ffffffffffffffffffffffffffffffffffffffff1681565b6000600460008473ffffffffffffffffffffffffffffffffffffffff1673ffffffffffffffffffffffffffffffffffffffff16815260200190815260200160002060008373ffffffffffffffffffffffffffffffffffffffff1673ffffffffffffffffffffffffffffffffffffffff16815260200190815260200160002060009054906101000a900460ff16905092915050565b600960009054906101000a900473ffffffffffffffffffffffffffffffffffffffff1673ffffffffffffffffffffffffffffffffffffffff163373ffffffffffffffffffffffffffffffffffffffff16146040518060400160405280600681526020017f3031383030310000000000000000000000000000000000000000000000000000815250906123c5576040517f08c379a00000000000000000000000000000000000000000000000000000000081526004016123bc9190614035565b60405180910390fd5b50600073ffffffffffffffffffffffffffffffffffffffff168173ffffffffffffffffffffffffffffffffffffffff1614156040518060400160405280600681526020017f30313830303200000000000000000000000000000000000000000000000000008152509061246e576040517f08c379a00000000000000000000000000000000000000000000000000000000081526004016124659190614035565b60405180910390fd5b508073ffffffffffffffffffffffffffffffffffffffff16600960009054906101000a900473ffffffffffffffffffffffffffffffffffffffff1673ffffffffffffffffffffffffffffffffffffffff167f8be0079c531659141344cd1fd0a4f28419497f9722a3daafe3b4186f6b6457e060405160405180910390a380600960006101000a81548173ffffffffffffffffffffffffffffffffffffffff021916908373ffffffffffffffffffffffffffffffffffffffff16021790555050565b6040518060400160405280600681526020017f303138303031000000000000000000000000000000000000000000000000000081525081565b600b5481565b6000600580549050905090565b60006001600083815260200190815260200160002060009054906101000a900473ffffffffffffffffffffffffffffffffffffffff1690506125bc82612e81565b6125c68183612eba565b6125d08383613181565b818373ffffffffffffffffffffffffffffffffffffffff168273ffffffffffffffffffffffffffffffffffffffff167fddf252ad1be2c89b69c2b068fc378daa952ba7f163c4a11628f55a4df523b3ef60405160405180910390a4505050565b8160006001600083815260200190815260200160002060009054906101000a900473ffffffffffffffffffffffffffffffffffffffff1690503373ffffffffffffffffffffffffffffffffffffffff168173ffffffffffffffffffffffffffffffffffffffff16148061270157503373ffffffffffffffffffffffffffffffffffffffff166002600084815260200190815260200160002060009054906101000a900473ffffffffffffffffffffffffffffffffffffffff1673ffffffffffffffffffffffffffffffffffffffff16145b806127925750600460008273ffffffffffffffffffffffffffffffffffffffff1673ffffffffffffffffffffffffffffffffffffffff16815260200190815260200160002060003373ffffffffffffffffffffffffffffffffffffffff1673ffffffffffffffffffffffffffffffffffffffff16815260200190815260200160002060009054906101000a900460ff165b6040518060400160405280600681526020017f303033303034000000000000000000000000000000000000000000000000000081525090612809576040517f08c379a00000000000000000000000000000000000000000000000000000000081526004016128009190614035565b60405180910390fd5b5083600073ffffffffffffffffffffffffffffffffffffffff166001600083815260200190815260200160002060009054906101000a900473ffffffffffffffffffffffffffffffffffffffff1673ffffffffffffffffffffffffffffffffffffffff1614156040518060400160405280600681526020017f3030333030320000000000000000000000000000000000000000000000000000815250906128e6576040517f08c379a00000000000000000000000000000000000000000000000000000000081526004016128dd9190614035565b60405180910390fd5b5060006001600087815260200190815260200160002060009054906101000a900473ffffffffffffffffffffffffffffffffffffffff1690508773ffffffffffffffffffffffffffffffffffffffff168173ffffffffffffffffffffffffffffffffffffffff16146040518060400160405280600681526020017f3030333030370000000000000000000000000000000000000000000000000000815250906129c5576040517f08c379a00000000000000000000000000000000000000000000000000000000081526004016129bc9190614035565b60405180910390fd5b50600073ffffffffffffffffffffffffffffffffffffffff168773ffffffffffffffffffffffffffffffffffffffff1614156040518060400160405280600681526020017f303033303031000000000000000000000000000000000000000000000000000081525090612a6e576040517f08c379a0000000000000000000000000000000000000000000000000000000008152600401612a659190614035565b60405180910390fd5b50612a79878761257b565b612a988773ffffffffffffffffffffffffffffffffffffffff1661337e565b15612bf45760008773ffffffffffffffffffffffffffffffffffffffff1663150b7a02338b8a8a6040518563ffffffff1660e01b8152600401612ade9493929190613f8a565b602060405180830381600087803b158015612af857600080fd5b505af1158015612b0c573d6000803e3d6000fd5b505050506040513d601f19601f82011682018060405250810190612b309190613cb3565b905063150b7a0260e01b7bffffffffffffffffffffffffffffffffffffffffffffffffffffffff1916817bffffffffffffffffffffffffffffffffffffffffffffffffffffffff1916146040518060400160405280600681526020017f303033303035000000000000000000000000000000000000000000000000000081525090612bf1576040517f08c379a0000000000000000000000000000000000000000000000000000000008152600401612be89190614035565b60405180910390fd5b50505b5050505050505050565b806002600084815260200190815260200160002060006101000a81548173ffffffffffffffffffffffffffffffffffffffff021916908373ffffffffffffffffffffffffffffffffffffffff1602179055505050565b6000600760008373ffffffffffffffffffffffffffffffffffffffff1673ffffffffffffffffffffffffffffffffffffffff168152602001908152602001600020805490509050919050565b60006040518060c001604052804267ffffffffffffffff1681526020016001600c80549050612ccf9190614220565b67ffffffffffffffff1681526020018781526020018667ffffffffffffffff1681526020018563ffffffff1681526020018463ffffffff168152509050600c8190806001815401808255809150506001900390600052602060002090601a020160009091909190915060008201518160000160006101000a81548167ffffffffffffffff021916908367ffffffffffffffff16021790555060208201518160000160086101000a81548167ffffffffffffffff021916908367ffffffffffffffff160217905550604082015181600101906018612dad929190613645565b5060608201518160190160006101000a81548167ffffffffffffffff021916908367ffffffffffffffff16021790555060808201518160190160086101000a81548163ffffffff021916908363ffffffff16021790555060a082015181601901600c6101000a81548163ffffffff021916908363ffffffff1602179055505050612e3c82600c805490506133c9565b7f1a4fe96609ea58c059268747c291344dae9cf06ca12f4d4b4cba978488de124a338260200151604051612e71929190613fd6565b60405180910390a1505050505050565b6002600082815260200190815260200160002060006101000a81549073ffffffffffffffffffffffffffffffffffffffff021916905550565b8173ffffffffffffffffffffffffffffffffffffffff166001600083815260200190815260200160002060009054906101000a900473ffffffffffffffffffffffffffffffffffffffff1673ffffffffffffffffffffffffffffffffffffffff16146040518060400160405280600681526020017f303033303037000000000000000000000000000000000000000000000000000081525090612f93576040517f08c379a0000000000000000000000000000000000000000000000000000000008152600401612f8a9190614035565b60405180910390fd5b506001600082815260200190815260200160002060006101000a81549073ffffffffffffffffffffffffffffffffffffffff021916905560006008600083815260200190815260200160002054905060006001600760008673ffffffffffffffffffffffffffffffffffffffff1673ffffffffffffffffffffffffffffffffffffffff168152602001908152602001600020805490506130339190614276565b9050818114613116576000600760008673ffffffffffffffffffffffffffffffffffffffff1673ffffffffffffffffffffffffffffffffffffffff168152602001908152602001600020828154811061308f5761308e614459565b5b9060005260206000200154905080600760008773ffffffffffffffffffffffffffffffffffffffff1673ffffffffffffffffffffffffffffffffffffffff16815260200190815260200160002084815481106130ee576130ed614459565b5b9060005260206000200181905550826008600083815260200190815260200160002081905550505b600760008573ffffffffffffffffffffffffffffffffffffffff1673ffffffffffffffffffffffffffffffffffffffff1681526020019081526020016000208054806131655761316461442a565b5b6001900381819060005260206000200160009055905550505050565b600073ffffffffffffffffffffffffffffffffffffffff166001600083815260200190815260200160002060009054906101000a900473ffffffffffffffffffffffffffffffffffffffff1673ffffffffffffffffffffffffffffffffffffffff16146040518060400160405280600681526020017f30303330303600000000000000000000000000000000000000000000000000008152509061325b576040517f08c379a00000000000000000000000000000000000000000000000000000000081526004016132529190614035565b60405180910390fd5b50816001600083815260200190815260200160002060006101000a81548173ffffffffffffffffffffffffffffffffffffffff021916908373ffffffffffffffffffffffffffffffffffffffff160217905550600760008373ffffffffffffffffffffffffffffffffffffffff1673ffffffffffffffffffffffffffffffffffffffff1681526020019081526020016000208190806001815401808255809150506001900390600052602060002001600090919091909150556001600760008473ffffffffffffffffffffffffffffffffffffffff1673ffffffffffffffffffffffffffffffffffffffff168152602001908152602001600020805490506133639190614276565b60086000838152602001908152602001600020819055505050565b60008060007fc5d2460186f7233c927e7db2dcc703c0e500b653ca82273b7bfad8045d85a47060001b9050833f91506000801b82141580156133c05750808214155b92505050919050565b6133d38282613429565b6005819080600181540180825580915050600190039060005260206000200160009091909190915055600160058054905061340e9190614276565b60066000838152602001908152602001600020819055505050565b600073ffffffffffffffffffffffffffffffffffffffff168273ffffffffffffffffffffffffffffffffffffffff1614156040518060400160405280600681526020017f3030333030310000000000000000000000000000000000000000000000000000815250906134d1576040517f08c379a00000000000000000000000000000000000000000000000000000000081526004016134c89190614035565b60405180910390fd5b50600073ffffffffffffffffffffffffffffffffffffffff166001600083815260200190815260200160002060009054906101000a900473ffffffffffffffffffffffffffffffffffffffff1673ffffffffffffffffffffffffffffffffffffffff16146040518060400160405280600681526020017f3030333030360000000000000000000000000000000000000000000000000000815250906135ac576040517f08c379a00000000000000000000000000000000000000000000000000000000081526004016135a39190614035565b60405180910390fd5b506135b78282613181565b808273ffffffffffffffffffffffffffffffffffffffff16600073ffffffffffffffffffffffffffffffffffffffff167fddf252ad1be2c89b69c2b068fc378daa952ba7f163c4a11628f55a4df523b3ef60405160405180910390a45050565b6040518061030001604052806018905b61362f613693565b8152602001906001900390816136275790505090565b8260188101928215613682579160200282015b828111156136815782518290600e6136719291906136b6565b5091602001919060010190613658565b5b50905061368f9190613750565b5090565b604051806101c00160405280600e90602082028036833780820191505090505090565b82600e601f0160209004810192821561373f5791602002820160005b8382111561371057835183826101000a81548160ff021916908360ff16021790555092602001926001016020816000010492830192600103026136d2565b801561373d5782816101000a81549060ff0219169055600101602081600001049283019260010302613710565b505b50905061374c9190613774565b5090565b5b8082111561377057600081816137679190613791565b50600101613751565b5090565b5b8082111561378d576000816000905550600101613775565b5090565b5060009055565b60006137ab6137a684614142565b61411d565b90508082856101c08602820111156137c6576137c56144c1565b5b60005b858110156137f757816137dc88826138bd565b84526020840193506101c083019250506001810190506137c9565b5050509392505050565b600061381461380f84614168565b61411d565b9050808285602086028201111561382e5761382d6144c1565b5b60005b8581101561385e578161384488826139d1565b845260208401935060208301925050600181019050613831565b5050509392505050565b6000813590506138778161450a565b92915050565b60008135905061388c81614521565b92915050565b600082601f8301126138a7576138a66144bc565b5b60186138b4848285613798565b91505092915050565b600082601f8301126138d2576138d16144bc565b5b600e6138df848285613801565b91505092915050565b6000813590506138f781614538565b92915050565b60008151905061390c81614538565b92915050565b6000813590506139218161454f565b92915050565b6000815190506139368161454f565b92915050565b60008083601f840112613952576139516144bc565b5b8235905067ffffffffffffffff81111561396f5761396e6144b7565b5b60208301915083600182028301111561398b5761398a6144c1565b5b9250929050565b6000813590506139a181614566565b92915050565b6000813590506139b68161457d565b92915050565b6000813590506139cb81614594565b92915050565b6000813590506139e0816145ab565b92915050565b6000602082840312156139fc576139fb6144cb565b5b6000613a0a84828501613868565b91505092915050565b60008060408385031215613a2a57613a296144cb565b5b6000613a388582860161387d565b9250506020613a4985828601613992565b9150509250929050565b60008060408385031215613a6a57613a696144cb565b5b6000613a7885828601613868565b9250506020613a8985828601613868565b9150509250929050565b600080600060608486031215613aac57613aab6144cb565b5b6000613aba86828701613868565b9350506020613acb86828701613868565b9250506040613adc86828701613992565b9150509250925092565b600080600080600060808688031215613b0257613b016144cb565b5b6000613b1088828901613868565b9550506020613b2188828901613868565b9450506040613b3288828901613992565b935050606086013567ffffffffffffffff811115613b5357613b526144c6565b5b613b5f8882890161393c565b92509250509295509295909350565b60008060408385031215613b8557613b846144cb565b5b6000613b9385828601613868565b9250506020613ba4858286016138e8565b9150509250929050565b60008060408385031215613bc557613bc46144cb565b5b6000613bd385828601613868565b9250506020613be485828601613992565b9150509250929050565b600080600080612a608587031215613c0957613c086144cb565b5b6000613c1787828801613892565b945050612a00613c29878288016139bc565b935050612a20613c3b878288016139a7565b925050612a40613c4d878288016139a7565b91505092959194509250565b600060208284031215613c6f57613c6e6144cb565b5b6000613c7d848285016138fd565b91505092915050565b600060208284031215613c9c57613c9b6144cb565b5b6000613caa84828501613912565b91505092915050565b600060208284031215613cc957613cc86144cb565b5b6000613cd784828501613927565b91505092915050565b600060208284031215613cf657613cf56144cb565b5b6000613d0484828501613992565b91505092915050565b60008060008060808587031215613d2757613d266144cb565b5b6000613d3587828801613992565b9450506020613d4687828801613992565b9350506040613d5787828801613992565b9250506060613d6887828801613992565b91505092959194509250565b600060208284031215613d8a57613d896144cb565b5b6000613d98848285016139bc565b91505092915050565b6000613dad8383613e38565b6101c08301905092915050565b6000613dc68383613f60565b60208301905092915050565b613ddb816142aa565b82525050565b613dea816141a2565b613df481846141e8565b9250613dff8261418e565b8060005b83811015613e30578151613e178782613da1565b9650613e22836141ce565b925050600181019050613e03565b505050505050565b613e41816141ad565b613e4b81846141f3565b9250613e5682614198565b8060005b83811015613e87578151613e6e8782613dba565b9650613e79836141db565b925050600181019050613e5a565b505050505050565b613e98816142ce565b82525050565b6000613ea9826141b8565b613eb381856141fe565b9350613ec3818560208601614397565b613ecc816144d0565b840191505092915050565b613ee081614361565b82525050565b6000613ef1826141c3565b613efb818561420f565b9350613f0b818560208601614397565b613f14816144d0565b840191505092915050565b6000613f2c60198361420f565b9150613f37826144e1565b602082019050919050565b613f4b81614326565b82525050565b613f5a81614340565b82525050565b613f6981614354565b82525050565b6000602082019050613f846000830184613dd2565b92915050565b6000608082019050613f9f6000830187613dd2565b613fac6020830186613dd2565b613fb96040830185613f42565b8181036060830152613fcb8184613e9e565b905095945050505050565b6000604082019050613feb6000830185613dd2565b613ff86020830184613f51565b9392505050565b60006020820190506140146000830184613e8f565b92915050565b600060208201905061402f6000830184613ed7565b92915050565b6000602082019050818103600083015261404f8184613ee6565b905092915050565b6000602082019050818103600083015261407081613f1f565b9050919050565b600060208201905061408c6000830184613f42565b92915050565b600060a0820190506140a76000830188613f42565b6140b46020830187613f42565b6140c16040830186613f42565b6140ce6060830185613f42565b6140db6080830184613dd2565b9695505050505050565b6000612a40820190506140fb6000830186613f51565b6141086020830185613f51565b6141156040830184613de1565b949350505050565b6000614127614138565b905061413382826143ca565b919050565b6000604051905090565b600067ffffffffffffffff82111561415d5761415c614488565b5b602082029050919050565b600067ffffffffffffffff82111561418357614182614488565b5b602082029050919050565b6000819050919050565b6000819050919050565b600060189050919050565b6000600e9050919050565b600081519050919050565b600081519050919050565b6000602082019050919050565b6000602082019050919050565b600081905092915050565b600081905092915050565b600082825260208201905092915050565b600082825260208201905092915050565b600061422b82614326565b915061423683614326565b9250827fffffffffffffffffffffffffffffffffffffffffffffffffffffffffffffffff0382111561426b5761426a6143fb565b5b828201905092915050565b600061428182614326565b915061428c83614326565b92508282101561429f5761429e6143fb565b5b828203905092915050565b60006142b582614306565b9050919050565b60006142c782614306565b9050919050565b60008115159050919050565b60007fffffffff0000000000000000000000000000000000000000000000000000000082169050919050565b600073ffffffffffffffffffffffffffffffffffffffff82169050919050565b6000819050919050565b600063ffffffff82169050919050565b600067ffffffffffffffff82169050919050565b600060ff82169050919050565b600061436c82614373565b9050919050565b600061437e82614385565b9050919050565b600061439082614306565b9050919050565b60005b838110156143b557808201518184015260208101905061439a565b838111156143c4576000848401525b50505050565b6143d3826144d0565b810181811067ffffffffffffffff821117156143f2576143f1614488565b5b80604052505050565b7f4e487b7100000000000000000000000000000000000000000000000000000000600052601160045260246000fd5b7f4e487b7100000000000000000000000000000000000000000000000000000000600052603160045260246000fd5b7f4e487b7100000000000000000000000000000000000000000000000000000000600052603260045260246000fd5b7f4e487b7100000000000000000000000000000000000000000000000000000000600052604160045260246000fd5b600080fd5b600080fd5b600080fd5b600080fd5b600080fd5b6000601f19601f8301169050919050565b7f73656e646572206973206e6f7420746f6b656e206f776e657200000000000000600082015250565b614513816142aa565b811461451e57600080fd5b50565b61452a816142bc565b811461453557600080fd5b50565b614541816142ce565b811461454c57600080fd5b50565b614558816142da565b811461456357600080fd5b50565b61456f81614326565b811461457a57600080fd5b50565b61458681614330565b811461459157600080fd5b50565b61459d81614340565b81146145a857600080fd5b50565b6145b481614354565b81146145bf57600080fd5b5056fea264697066735822122059952f9b8755e82ed781180625354d1da57ef83782f18a85127dbd9818f7731364736f6c63430008070033",
  "immutableReferences": {},
  "source": "// SPDX-License-Identifier: MIT\npragma solidity ^0.8.7;\n\nimport \"./nfTokenEnumerable.sol\";\nimport \"../ownership/Ownable.sol\";\nimport \"./auctionContract.sol\";\n\n// .    - , , ?    - ?\n//     (createTree) - ?? --    ,   (),   \n// ,  ,      \n// \n// \n// \n\n//   .  ?  !!! -    \n//     ???++\n\n/**\n * @title Pausable\n * @dev Base contract which allows children to implement an emergency stop mechanism.\n */\ncontract Pausable is Ownable {\n    event Pause();\n    event Unpause();\n\n    bool public paused = false;\n\n\n    /**\n     * @dev modifier to allow actions only when the contract IS paused\n     */\n    modifier whenNotPaused() {\n        require(!paused);\n        _;\n    }\n\n    /**\n     * @dev modifier to allow actions only when the contract IS NOT paused\n     */\n    modifier whenPaused {\n      require(paused);\n      _;\n    }\n\n    /**\n     * @dev called by the owner to pause, triggers stopped state\n     */\n    function pause() public onlyOwner whenNotPaused returns (bool) {\n      paused = true;\n      emit Pause();\n      return true;\n    }\n\n    /**\n     * @dev called by the owner to unpause, returns to normal state\n     */\n    function unpause() public onlyOwner whenPaused returns (bool) {\n      paused = false;\n      emit Unpause();\n      return true;\n    }\n}\n\n\ncontract TreeContract is NFTokenEnumerable, Pausable {\n    /*** EVENTS ***/\n    event Creation(address owner, uint64 treeId);\n\n    /*** DATA TYPES ***/\n    struct Tree {\n        uint64 timestamp;\n        uint64 id;\n        uint8[14][24] dna;\n        uint64 generation;\n        uint32 matronId;\n        uint32 sireId;\n    }\n\n    SaleClockAuction public saleAuction;\n\n    // Cost (in wei) of the tree\n    uint256 public treeCost = 1000000000000000;\n\n    /*** STORAGE ***/\n    Tree[] trees;\n\n//    string[][6] public names_A_to_F;\n\n    // constructor\n    // _createKitty(0, 0, 0, uint256(-1), address(0));!!!!!!!!!!!!!!!!!!!!!!!!!!!!!!!!!!!!!!!!!!!!!!!!!!!!!!!!!!!!!!!!!!\n//    constructor() {\n//        uint8[14][24] memory _zeroDNA;\n//        Tree memory _tree = Tree({\n//            timestamp: uint64(block.timestamp),\n//            id: uint64(trees.length + 1),\n//            dna: _zeroDNA\n//        });\n//\n//        trees.push(_tree);\n//    }\n\n    function withdrawBalance(address payable _to, uint256 _amount) external onlyOwner {\n        require(_to != address(0));\n        _to.transfer(_amount);\n    }\n\n    function setTreeCost(uint256 _treeCost) external onlyOwner {\n        treeCost = _treeCost;\n    }\n\n    function createTree(\n        uint8[14][24] memory _dna,\n        uint64 _generation,\n        uint32 _matronId,\n        uint32 _sireId\n    )\n    external\n//    payable\n    {\n//        uint256 value = msg.value;\n//        require(value >= treeCost, \"003337\");\n\n        _createTree(_dna, _generation, _matronId, _sireId, msg.sender);\n\n//        uint256 change = value - treeCost;\n//        if (change > 0)\n//            payable(msg.sender).transfer(change);\n    }\n\n//    function createTreeCustom(\n//        uint64 _generation,\n//        uint32 _matronId,\n//        uint32 _sireId\n//    )\n//    external\n////    payable\n//    {\n////        uint8[][2] memory _dna = [[uint8(1),uint8(2),uint8(3),uint8(4)], [uint8(111),uint8(222),uint8(123),uint8(234)]];\n//        uint8[][10] memory _dna;\n//        _dna[0] = new uint8[](2);\n//        _dna[1] = new uint8[](2);\n//        _dna[2] = new uint8[](2);\n//        _dna[3] = new uint8[](2);\n//        _dna[5] = new uint8[](2);\n//        _dna[6] = new uint8[](2);\n//        _dna[7] = new uint8[](2);\n//        _dna[8] = new uint8[](2);\n//        _dna[9] = new uint8[](2);\n//\n////        for (uint8 i; i < 2; i++){\n////            for (uint8 j; j < 4; j++){\n////                _dna[i][j] = i + j;\n////            }\n////        }\n//\n////        _dna[0] = [uint8(1),uint8(2),uint8(3),uint8(4)];\n////        _dna[1] = [uint8(111),uint8(222),uint8(123),uint8(234)];\n//\n////        _dna[0] = [1, 2, 3, 4];\n////        _dna[1] = [uint8(111),uint8(222),uint8(123),uint8(234)];\n////        _dna[0][0] = uint8(101);\n////        _dna[0][1] = uint8(102);\n////        _dna[0][2] = uint8(103);\n////        _dna[0][3] = uint8(104);\n////\n////        _dna[1][0] = uint8(105);\n////        _dna[1][1] = uint8(106);\n////        _dna[1][2] = uint8(107);\n////        _dna[1][3] = uint8(108);\n//\n////        string[][6] memory names_A_to_F;\n////        names_A_to_F[0] = [\"Alice\"];\n////        names_A_to_F[1] = [\"Bob\"];\n////        names_A_to_F[2] = [\"Carol\", \"Carlos\", \"Charlie\", \"Chuck\", \"Craig\"];\n////        names_A_to_F[3] = [\"Dan\", \"Dave\", \"David\"];\n////        names_A_to_F[4] = [\"Erin\", \"Eve\"];\n//\n////        _dna.push([1, 2, 3, 4]);\n////        uint8[14][24] memory _dna = new uint8[14][24](4);\n////        for (uint8 k; k < 4; k++){\n////            _dna[k] = new uint8[](2);\n////        }\n//\n////        for (uint8 i; i < 4; i++){\n////            for (uint8 j; j < 4; j++){\n////                _dna[i][j] = j;\n////            }\n////        }\n//\n////        uint256 value = msg.value;\n////        require(value >= treeCost, \"003337\");\n//\n//        _createTree(_dna, _generation, _matronId, _sireId, msg.sender);\n//\n////        uint256 change = value - treeCost;\n////        if (change > 0)\n////            payable(msg.sender).transfer(change);\n//    }\n\n    function treeCount()\n    external\n    view\n//    payable\n    returns (uint256)\n    {\n        return tokens.length;\n    }\n\n    /// @dev Sets the reference to the sale auction.\n    /// @param _address - Address of sale contract.\n    function setSaleAuctionAddress(address _address) external onlyOwner {\n        SaleClockAuction candidateContract = SaleClockAuction(_address);\n\n        require(candidateContract.isSaleClockAuction());\n\n        // Set the new contract address\n        saleAuction = candidateContract;\n    }\n\n    /// @dev Transfers the balance of the sale auction contract\n    /// to the TreeContract contract.\n    function withdrawAuctionBalance() external onlyOwner {\n        saleAuction.withdrawBalance();\n    }\n\n    function createAuction(\n        uint256 _tokenId,\n        uint256 _startingPrice,\n        uint256 _endingPrice,\n        uint256 _duration\n    )\n        external\n        whenNotPaused\n    {\n        require(idToOwner[_tokenId] == msg.sender, \"sender is not token owner\");\n\n        require(_startingPrice == uint256(uint128(_startingPrice)));\n        require(_endingPrice == uint256(uint128(_endingPrice)));\n        require(_duration == uint256(uint64(_duration)));\n        require(_startingPrice >= _endingPrice);\n\n        _approve(_tokenId, address(saleAuction));\n\n        saleAuction.createAuction(\n            _tokenId,\n            _startingPrice,\n            _endingPrice,\n            _duration,\n            msg.sender\n        );\n    }\n\n    function getTreeData(uint64 _id)\n    public\n    view\n    returns (uint64, uint64, uint8[14][24] memory)\n    {\n        uint256 tokenIndex = idToIndex[_id];\n        require(tokenIndex < tokens.length, INVALID_INDEX);\n\n        Tree memory _tree = trees[tokenIndex];\n\n        return (\n            _tree.timestamp,\n            _tree.id,\n            _tree.dna\n        );\n    }\n\n    function _approve(uint256 _tokenId, address _approved) internal {\n        idToApproval[_tokenId] = _approved;\n    }\n\n    function _createTree(uint8[14][24] memory _dna, uint64 _generation, uint32 _matronId, uint32 _sireId, address _owner)\n    internal\n    {\n        Tree memory _tree = Tree({\n            timestamp: uint64(block.timestamp),\n            id: uint64(trees.length + 1),\n            dna: _dna,\n            generation: _generation,\n            matronId: _matronId,\n            sireId: _sireId\n        });\n\n        trees.push(_tree);\n\n//        _mint(address(this), areas.length);\n//        _addNFToken(address(this), areas.length);\n        super._mint(_owner, trees.length);\n//        _addNFToken(msg.sender, areas.length);\n\n        // create event!!!\n        emit Creation(msg.sender, _tree.id);\n    }\n\n\n    receive() external payable {}\n}\n",
  "sourcePath": "/home/niko/projects/digital_forest/kotov/smart_contract/contracts/tokens/treeContract.sol",
  "compiler": {
    "name": "solc",
    "version": "0.8.7+commit.e28d00a7.Emscripten.clang"
  },
  "schemaVersion": "3.4.3",
  "updatedAt": "2021-12-01T08:54:33.096Z",
  "networkType": "ethereum",
  "devdoc": {
    "kind": "dev",
    "methods": {
      "approve(address,uint256)": {
        "details": "Set or reaffirm the approved address for an NFT. This function can be changed to payable.",
        "params": {
          "_approved": "Address to be approved for the given NFT ID.",
          "_tokenId": "ID of the token to be approved."
        }
      },
      "balanceOf(address)": {
        "details": "Returns the number of NFTs owned by `_owner`. NFTs assigned to the zero address are considered invalid, and this function throws for queries about the zero address.",
        "params": {
          "_owner": "Address for whom to query the balance."
        },
        "returns": {
          "_0": "Balance of _owner."
        }
      },
      "getApproved(uint256)": {
        "details": "Get the approved address for a single NFT.",
        "params": {
          "_tokenId": "ID of the NFT to query the approval of."
        },
        "returns": {
          "_0": "Address that _tokenId is approved for."
        }
      },
      "isApprovedForAll(address,address)": {
        "details": "Checks if `_operator` is an approved operator for `_owner`.",
        "params": {
          "_operator": "The address that acts on behalf of the owner.",
          "_owner": "The address that owns the NFTs."
        },
        "returns": {
          "_0": "True if approved for all, false otherwise."
        }
      },
      "ownerOf(uint256)": {
        "details": "Returns the address of the owner of the NFT. NFTs assigned to the zero address are considered invalid, and queries about them do throw.",
        "params": {
          "_tokenId": "The identifier for an NFT."
        },
        "returns": {
          "_owner": "Address of _tokenId owner."
        }
      },
      "pause()": {
        "details": "called by the owner to pause, triggers stopped state"
      },
      "safeTransferFrom(address,address,uint256)": {
        "details": "Transfers the ownership of an NFT from one address to another address. This function can be changed to payable.",
        "params": {
          "_from": "The current owner of the NFT.",
          "_to": "The new owner.",
          "_tokenId": "The NFT to transfer."
        }
      },
      "safeTransferFrom(address,address,uint256,bytes)": {
        "details": "Transfers the ownership of an NFT from one address to another address. This function can be changed to payable.",
        "params": {
          "_data": "Additional data with no specified format, sent in call to `_to`.",
          "_from": "The current owner of the NFT.",
          "_to": "The new owner.",
          "_tokenId": "The NFT to transfer."
        }
      },
      "setApprovalForAll(address,bool)": {
        "details": "Enables or disables approval for a third party (\"operator\") to manage all of `msg.sender`'s assets. It also emits the ApprovalForAll event.",
        "params": {
          "_approved": "True if the operators is approved, false to revoke approval.",
          "_operator": "Address to add to the set of authorized operators."
        }
      },
      "setSaleAuctionAddress(address)": {
        "details": "Sets the reference to the sale auction.",
        "params": {
          "_address": "- Address of sale contract."
        }
      },
      "supportsInterface(bytes4)": {
        "details": "Function to check which interfaces are suported by this contract.",
        "params": {
          "_interfaceID": "Id of the interface."
        },
        "returns": {
          "_0": "True if _interfaceID is supported, false otherwise."
        }
      },
      "tokenByIndex(uint256)": {
        "details": "Returns NFT ID by its index.",
        "params": {
          "_index": "A counter less than `totalSupply()`."
        },
        "returns": {
          "_0": "Token id."
        }
      },
      "tokenOfOwnerByIndex(address,uint256)": {
        "details": "returns the n-th NFT ID from a list of owner's tokens.",
        "params": {
          "_index": "Index number representing n-th token in owner's list of tokens.",
          "_owner": "Token owner's address."
        },
        "returns": {
          "_0": "Token id."
        }
      },
      "totalSupply()": {
        "details": "Returns the count of all existing NFTokens.",
        "returns": {
          "_0": "Total supply of NFTs."
        }
      },
      "transferFrom(address,address,uint256)": {
        "details": "Throws unless `msg.sender` is the current owner, an authorized operator, or the approved address for this NFT. Throws if `_from` is not the current owner. Throws if `_to` is the zero address. Throws if `_tokenId` is not a valid NFT. This function can be changed to payable.",
        "params": {
          "_from": "The current owner of the NFT.",
          "_to": "The new owner.",
          "_tokenId": "The NFT to transfer."
        }
      },
      "transferOwnership(address)": {
        "details": "Allows the current owner to transfer control of the contract to a newOwner.",
        "params": {
          "_newOwner": "The address to transfer ownership to."
        }
      },
      "unpause()": {
        "details": "called by the owner to unpause, returns to normal state"
      },
      "withdrawAuctionBalance()": {
        "details": "Transfers the balance of the sale auction contract to the TreeContract contract."
      }
    },
    "version": 1
  },
  "userdoc": {
    "kind": "user",
    "methods": {
      "approve(address,uint256)": {
        "notice": "The zero address indicates there is no approved address. Throws unless `msg.sender` is the current NFT owner, or an authorized operator of the current owner."
      },
      "getApproved(uint256)": {
        "notice": "Throws if `_tokenId` is not a valid NFT."
      },
      "safeTransferFrom(address,address,uint256)": {
        "notice": "This works identically to the other function with an extra data parameter, except this function just sets data to \"\""
      },
      "safeTransferFrom(address,address,uint256,bytes)": {
        "notice": "Throws unless `msg.sender` is the current owner, an authorized operator, or the approved address for this NFT. Throws if `_from` is not the current owner. Throws if `_to` is the zero address. Throws if `_tokenId` is not a valid NFT. When transfer is complete, this function checks if `_to` is a smart contract (code size > 0). If so, it calls `onERC721Received` on `_to` and throws if the return value is not `bytes4(keccak256(\"onERC721Received(address,uint256,bytes)\"))`."
      },
      "setApprovalForAll(address,bool)": {
        "notice": "This works even if sender doesn't own any tokens at the time."
      },
      "transferFrom(address,address,uint256)": {
        "notice": "The caller is responsible to confirm that `_to` is capable of receiving NFTs or else they may be permanently lost."
      }
    },
    "version": 1
  }
}