{
  "contractName": "TreeContract",
  "abi": [
    {
      "inputs": [],
      "stateMutability": "nonpayable",
      "type": "constructor"
    },
    {
      "anonymous": false,
      "inputs": [
        {
          "indexed": true,
          "internalType": "address",
          "name": "_owner",
          "type": "address"
        },
        {
          "indexed": true,
          "internalType": "address",
          "name": "_approved",
          "type": "address"
        },
        {
          "indexed": true,
          "internalType": "uint256",
          "name": "_tokenId",
          "type": "uint256"
        }
      ],
      "name": "Approval",
      "type": "event"
    },
    {
      "anonymous": false,
      "inputs": [
        {
          "indexed": true,
          "internalType": "address",
          "name": "_owner",
          "type": "address"
        },
        {
          "indexed": true,
          "internalType": "address",
          "name": "_operator",
          "type": "address"
        },
        {
          "indexed": false,
          "internalType": "bool",
          "name": "_approved",
          "type": "bool"
        }
      ],
      "name": "ApprovalForAll",
      "type": "event"
    },
    {
      "anonymous": false,
      "inputs": [
        {
          "indexed": false,
          "internalType": "address",
          "name": "owner",
          "type": "address"
        },
        {
          "indexed": false,
          "internalType": "uint64",
          "name": "treeId",
          "type": "uint64"
        }
      ],
      "name": "Creation",
      "type": "event"
    },
    {
      "anonymous": false,
      "inputs": [
        {
          "indexed": true,
          "internalType": "address",
          "name": "previousOwner",
          "type": "address"
        },
        {
          "indexed": true,
          "internalType": "address",
          "name": "newOwner",
          "type": "address"
        }
      ],
      "name": "OwnershipTransferred",
      "type": "event"
    },
    {
      "anonymous": false,
      "inputs": [],
      "name": "Pause",
      "type": "event"
    },
    {
      "anonymous": false,
      "inputs": [
        {
          "indexed": true,
          "internalType": "address",
          "name": "_from",
          "type": "address"
        },
        {
          "indexed": true,
          "internalType": "address",
          "name": "_to",
          "type": "address"
        },
        {
          "indexed": true,
          "internalType": "uint256",
          "name": "_tokenId",
          "type": "uint256"
        }
      ],
      "name": "Transfer",
      "type": "event"
    },
    {
      "anonymous": false,
      "inputs": [],
      "name": "Unpause",
      "type": "event"
    },
    {
      "inputs": [],
      "name": "CANNOT_TRANSFER_TO_ZERO_ADDRESS",
      "outputs": [
        {
          "internalType": "string",
          "name": "",
          "type": "string"
        }
      ],
      "stateMutability": "view",
      "type": "function",
      "constant": true
    },
    {
      "inputs": [],
      "name": "NOT_CURRENT_OWNER",
      "outputs": [
        {
          "internalType": "string",
          "name": "",
          "type": "string"
        }
      ],
      "stateMutability": "view",
      "type": "function",
      "constant": true
    },
    {
      "inputs": [
        {
          "internalType": "address",
          "name": "_approved",
          "type": "address"
        },
        {
          "internalType": "uint256",
          "name": "_tokenId",
          "type": "uint256"
        }
      ],
      "name": "approve",
      "outputs": [],
      "stateMutability": "nonpayable",
      "type": "function"
    },
    {
      "inputs": [
        {
          "internalType": "address",
          "name": "_owner",
          "type": "address"
        }
      ],
      "name": "balanceOf",
      "outputs": [
        {
          "internalType": "uint256",
          "name": "",
          "type": "uint256"
        }
      ],
      "stateMutability": "view",
      "type": "function",
      "constant": true
    },
    {
      "inputs": [
        {
          "internalType": "uint256",
          "name": "_tokenId",
          "type": "uint256"
        }
      ],
      "name": "getApproved",
      "outputs": [
        {
          "internalType": "address",
          "name": "",
          "type": "address"
        }
      ],
      "stateMutability": "view",
      "type": "function",
      "constant": true
    },
    {
      "inputs": [
        {
          "internalType": "address",
          "name": "_owner",
          "type": "address"
        },
        {
          "internalType": "address",
          "name": "_operator",
          "type": "address"
        }
      ],
      "name": "isApprovedForAll",
      "outputs": [
        {
          "internalType": "bool",
          "name": "",
          "type": "bool"
        }
      ],
      "stateMutability": "view",
      "type": "function",
      "constant": true
    },
    {
      "inputs": [],
      "name": "owner",
      "outputs": [
        {
          "internalType": "address",
          "name": "",
          "type": "address"
        }
      ],
      "stateMutability": "view",
      "type": "function",
      "constant": true
    },
    {
      "inputs": [
        {
          "internalType": "uint256",
          "name": "_tokenId",
          "type": "uint256"
        }
      ],
      "name": "ownerOf",
      "outputs": [
        {
          "internalType": "address",
          "name": "_owner",
          "type": "address"
        }
      ],
      "stateMutability": "view",
      "type": "function",
      "constant": true
    },
    {
      "inputs": [],
      "name": "pause",
      "outputs": [
        {
          "internalType": "bool",
          "name": "",
          "type": "bool"
        }
      ],
      "stateMutability": "nonpayable",
      "type": "function"
    },
    {
      "inputs": [],
      "name": "paused",
      "outputs": [
        {
          "internalType": "bool",
          "name": "",
          "type": "bool"
        }
      ],
      "stateMutability": "view",
      "type": "function",
      "constant": true
    },
    {
      "inputs": [
        {
          "internalType": "address",
          "name": "_from",
          "type": "address"
        },
        {
          "internalType": "address",
          "name": "_to",
          "type": "address"
        },
        {
          "internalType": "uint256",
          "name": "_tokenId",
          "type": "uint256"
        }
      ],
      "name": "safeTransferFrom",
      "outputs": [],
      "stateMutability": "nonpayable",
      "type": "function"
    },
    {
      "inputs": [
        {
          "internalType": "address",
          "name": "_from",
          "type": "address"
        },
        {
          "internalType": "address",
          "name": "_to",
          "type": "address"
        },
        {
          "internalType": "uint256",
          "name": "_tokenId",
          "type": "uint256"
        },
        {
          "internalType": "bytes",
          "name": "_data",
          "type": "bytes"
        }
      ],
      "name": "safeTransferFrom",
      "outputs": [],
      "stateMutability": "nonpayable",
      "type": "function"
    },
    {
      "inputs": [],
      "name": "saleAuction",
      "outputs": [
        {
          "internalType": "contract SaleClockAuction",
          "name": "",
          "type": "address"
        }
      ],
      "stateMutability": "view",
      "type": "function",
      "constant": true
    },
    {
      "inputs": [
        {
          "internalType": "address",
          "name": "_operator",
          "type": "address"
        },
        {
          "internalType": "bool",
          "name": "_approved",
          "type": "bool"
        }
      ],
      "name": "setApprovalForAll",
      "outputs": [],
      "stateMutability": "nonpayable",
      "type": "function"
    },
    {
      "inputs": [
        {
          "internalType": "bytes4",
          "name": "_interfaceID",
          "type": "bytes4"
        }
      ],
      "name": "supportsInterface",
      "outputs": [
        {
          "internalType": "bool",
          "name": "",
          "type": "bool"
        }
      ],
      "stateMutability": "view",
      "type": "function",
      "constant": true
    },
    {
      "inputs": [
        {
          "internalType": "uint256",
          "name": "_index",
          "type": "uint256"
        }
      ],
      "name": "tokenByIndex",
      "outputs": [
        {
          "internalType": "uint256",
          "name": "",
          "type": "uint256"
        }
      ],
      "stateMutability": "view",
      "type": "function",
      "constant": true
    },
    {
      "inputs": [
        {
          "internalType": "address",
          "name": "_owner",
          "type": "address"
        },
        {
          "internalType": "uint256",
          "name": "_index",
          "type": "uint256"
        }
      ],
      "name": "tokenOfOwnerByIndex",
      "outputs": [
        {
          "internalType": "uint256",
          "name": "",
          "type": "uint256"
        }
      ],
      "stateMutability": "view",
      "type": "function",
      "constant": true
    },
    {
      "inputs": [],
      "name": "totalSupply",
      "outputs": [
        {
          "internalType": "uint256",
          "name": "",
          "type": "uint256"
        }
      ],
      "stateMutability": "view",
      "type": "function",
      "constant": true
    },
    {
      "inputs": [
        {
          "internalType": "address",
          "name": "_from",
          "type": "address"
        },
        {
          "internalType": "address",
          "name": "_to",
          "type": "address"
        },
        {
          "internalType": "uint256",
          "name": "_tokenId",
          "type": "uint256"
        }
      ],
      "name": "transferFrom",
      "outputs": [],
      "stateMutability": "nonpayable",
      "type": "function"
    },
    {
      "inputs": [
        {
          "internalType": "address",
          "name": "_newOwner",
          "type": "address"
        }
      ],
      "name": "transferOwnership",
      "outputs": [],
      "stateMutability": "nonpayable",
      "type": "function"
    },
    {
      "inputs": [],
      "name": "treeCost",
      "outputs": [
        {
          "internalType": "uint256",
          "name": "",
          "type": "uint256"
        }
      ],
      "stateMutability": "view",
      "type": "function",
      "constant": true
    },
    {
      "inputs": [],
      "name": "treeViewer",
      "outputs": [
        {
          "internalType": "address",
          "name": "",
          "type": "address"
        }
      ],
      "stateMutability": "view",
      "type": "function",
      "constant": true
    },
    {
      "inputs": [],
      "name": "unpause",
      "outputs": [
        {
          "internalType": "bool",
          "name": "",
          "type": "bool"
        }
      ],
      "stateMutability": "nonpayable",
      "type": "function"
    },
    {
      "stateMutability": "payable",
      "type": "receive",
      "payable": true
    },
    {
      "inputs": [
        {
          "internalType": "address payable",
          "name": "_to",
          "type": "address"
        },
        {
          "internalType": "uint256",
          "name": "_amount",
          "type": "uint256"
        }
      ],
      "name": "withdrawBalance",
      "outputs": [],
      "stateMutability": "nonpayable",
      "type": "function"
    },
    {
      "inputs": [
        {
          "internalType": "uint256",
          "name": "_treeCost",
          "type": "uint256"
        }
      ],
      "name": "setTreeCost",
      "outputs": [],
      "stateMutability": "nonpayable",
      "type": "function"
    },
    {
      "inputs": [
        {
          "internalType": "address",
          "name": "_treeViewer",
          "type": "address"
        }
      ],
      "name": "setTreeViewer",
      "outputs": [],
      "stateMutability": "nonpayable",
      "type": "function"
    },
    {
      "inputs": [
        {
          "internalType": "uint8[14][24]",
          "name": "_dna",
          "type": "uint8[14][24]"
        },
        {
          "internalType": "uint64",
          "name": "_generation",
          "type": "uint64"
        },
        {
          "internalType": "uint32",
          "name": "_matronId",
          "type": "uint32"
        },
        {
          "internalType": "uint32",
          "name": "_sireId",
          "type": "uint32"
        }
      ],
      "name": "createTree",
      "outputs": [],
      "stateMutability": "payable",
      "type": "function",
      "payable": true
    },
    {
      "inputs": [],
      "name": "treeCount",
      "outputs": [
        {
          "internalType": "uint256",
          "name": "",
          "type": "uint256"
        }
      ],
      "stateMutability": "view",
      "type": "function",
      "constant": true
    },
    {
      "inputs": [
        {
          "internalType": "address",
          "name": "_address",
          "type": "address"
        }
      ],
      "name": "setSaleAuctionAddress",
      "outputs": [],
      "stateMutability": "nonpayable",
      "type": "function"
    },
    {
      "inputs": [],
      "name": "withdrawAuctionBalance",
      "outputs": [],
      "stateMutability": "nonpayable",
      "type": "function"
    },
    {
      "inputs": [
        {
          "internalType": "uint256",
          "name": "_tokenId",
          "type": "uint256"
        },
        {
          "internalType": "uint256",
          "name": "_startingPrice",
          "type": "uint256"
        },
        {
          "internalType": "uint256",
          "name": "_endingPrice",
          "type": "uint256"
        },
        {
          "internalType": "uint256",
          "name": "_duration",
          "type": "uint256"
        }
      ],
      "name": "createAuction",
      "outputs": [],
      "stateMutability": "nonpayable",
      "type": "function"
    },
    {
      "inputs": [
        {
          "internalType": "uint64",
          "name": "_id",
          "type": "uint64"
        }
      ],
      "name": "getTreeData",
      "outputs": [
        {
          "internalType": "uint64",
          "name": "",
          "type": "uint64"
        },
        {
          "internalType": "uint64",
          "name": "",
          "type": "uint64"
        },
        {
          "internalType": "uint8[14][24]",
          "name": "",
          "type": "uint8[14][24]"
        },
        {
          "internalType": "uint64",
          "name": "",
          "type": "uint64"
        },
        {
          "internalType": "uint32",
          "name": "",
          "type": "uint32"
        },
        {
          "internalType": "uint32",
          "name": "",
          "type": "uint32"
        }
      ],
      "stateMutability": "view",
      "type": "function",
      "constant": true
    }
  ],
  "bytecode": "0x60806040526000600960146101000a81548160ff02191690831515021790555066038d7ea4c68000600b5534801561003657600080fd5b5060016000806301ffc9a760e01b7bffffffffffffffffffffffffffffffffffffffffffffffffffffffff1916815260200190815260200160002060006101000a81548160ff02191690831515021790555060016000806380ac58cd60e01b7bffffffffffffffffffffffffffffffffffffffffffffffffffffffff1916815260200190815260200160002060006101000a81548160ff021916908315150217905550600160008063780e9d6360e01b7bffffffffffffffffffffffffffffffffffffffffffffffffffffffff1916815260200190815260200160002060006101000a81548160ff02191690831515021790555033600960006101000a81548173ffffffffffffffffffffffffffffffffffffffff021916908373ffffffffffffffffffffffffffffffffffffffff16021790555033600c60006101000a81548173ffffffffffffffffffffffffffffffffffffffff021916908373ffffffffffffffffffffffffffffffffffffffff1602179055506149d0806101bb6000396000f3fe6080604052600436106101e75760003560e01c806370a0823111610102578063d18329ef11610095578063f2fde38b11610064578063f2fde38b14610705578063f3fe3bc31461072e578063fc7c082c14610759578063fea3b6c314610784576101ee565b8063d18329ef1461065b578063d8eb3a9814610686578063e6cbe3511461069d578063e985e9c5146106c8576101ee565b80638da5cb5b116100d15780638da5cb5b146105c2578063a22cb465146105ed578063ae1d018d14610616578063b88d4fde14610632576101ee565b806370a08231146105065780638456cb5914610543578063860d248a1461056e5780638aa1abe814610599576101ee565b80633f4ba83a1161017a5780634f6ccce7116101495780634f6ccce7146104385780635c975abb146104755780636352211e146104a05780636fbde40d146104dd576101ee565b80633f4ba83a14610392578063402da7a5146103bd57806342842e0e146103e6578063431f21da1461040f576101ee565b80630cf20cc9116101b65780630cf20cc9146102d857806318160ddd1461030157806323b872dd1461032c5780632f745c5914610355576101ee565b806301bb503e146101f357806301ffc9a714610235578063081812fc14610272578063095ea7b3146102af576101ee565b366101ee57005b600080fd5b3480156101ff57600080fd5b5061021a600480360381019061021591906140a4565b6107af565b60405161022c96959493929190614467565b60405180910390f35b34801561024157600080fd5b5061025c60048036038101906102579190613fb6565b610ba3565b6040516102699190614361565b60405180910390f35b34801561027e57600080fd5b5061029960048036038101906102949190614010565b610c0a565b6040516102a691906142d1565b60405180910390f35b3480156102bb57600080fd5b506102d660048036038101906102d19190613ede565b610d25565b005b3480156102e457600080fd5b506102ff60048036038101906102fa9190613d43565b611108565b005b34801561030d57600080fd5b50610316611256565b60405161032391906143f9565b60405180910390f35b34801561033857600080fd5b50610353600480360381019061034e9190613dc3565b611263565b005b34801561036157600080fd5b5061037c60048036038101906103779190613ede565b6116b5565b60405161038991906143f9565b60405180910390f35b34801561039e57600080fd5b506103a76117d8565b6040516103b49190614361565b60405180910390f35b3480156103c957600080fd5b506103e460048036038101906103df9190613d16565b61190a565b005b3480156103f257600080fd5b5061040d60048036038101906104089190613dc3565b611a17565b005b34801561041b57600080fd5b506104366004803603810190610431919061403d565b611a37565b005b34801561044457600080fd5b5061045f600480360381019061045a9190614010565b611bc6565b60405161046c91906143f9565b60405180910390f35b34801561048157600080fd5b5061048a611c6e565b6040516104979190614361565b60405180910390f35b3480156104ac57600080fd5b506104c760048036038101906104c29190614010565b611c81565b6040516104d491906142d1565b60405180910390f35b3480156104e957600080fd5b5061050460048036038101906104ff9190613d16565b611d67565b005b34801561051257600080fd5b5061052d60048036038101906105289190613d16565b611f01565b60405161053a91906143f9565b60405180910390f35b34801561054f57600080fd5b50610558611fbb565b6040516105659190614361565b60405180910390f35b34801561057a57600080fd5b506105836120ee565b6040516105909190614397565b60405180910390f35b3480156105a557600080fd5b506105c060048036038101906105bb9190614010565b612127565b005b3480156105ce57600080fd5b506105d76121fa565b6040516105e491906142d1565b60405180910390f35b3480156105f957600080fd5b50610614600480360381019061060f9190613e9e565b612220565b005b610630600480360381019061062b9190613f1e565b61231d565b005b34801561063e57600080fd5b5061065960048036038101906106549190613e16565b6123a9565b005b34801561066757600080fd5b50610670612400565b60405161067d91906142d1565b60405180910390f35b34801561069257600080fd5b5061069b612426565b005b3480156106a957600080fd5b506106b2612573565b6040516106bf919061437c565b60405180910390f35b3480156106d457600080fd5b506106ef60048036038101906106ea9190613d83565b612599565b6040516106fc9190614361565b60405180910390f35b34801561071157600080fd5b5061072c60048036038101906107279190613d16565b61262d565b005b34801561073a57600080fd5b5061074361285f565b6040516107509190614397565b60405180910390f35b34801561076557600080fd5b5061076e612898565b60405161077b91906143f9565b60405180910390f35b34801561079057600080fd5b5061079961289e565b6040516107a691906143f9565b60405180910390f35b6000806107ba613947565b600080600080600660008967ffffffffffffffff16815260200190815260200160002054905060058054905081106040518060400160405280600681526020017f30303530303700000000000000000000000000000000000000000000000000008152509061085f576040517f08c379a00000000000000000000000000000000000000000000000000000000081526004016108569190614397565b60405180910390fd5b50600960009054906101000a900473ffffffffffffffffffffffffffffffffffffffff1673ffffffffffffffffffffffffffffffffffffffff163373ffffffffffffffffffffffffffffffffffffffff1614806109095750600c60009054906101000a900473ffffffffffffffffffffffffffffffffffffffff1673ffffffffffffffffffffffffffffffffffffffff163373ffffffffffffffffffffffffffffffffffffffff16145b8061097c5750600160008967ffffffffffffffff16815260200190815260200160002060009054906101000a900473ffffffffffffffffffffffffffffffffffffffff1673ffffffffffffffffffffffffffffffffffffffff163373ffffffffffffffffffffffffffffffffffffffff16145b6109bb576040517f08c379a00000000000000000000000000000000000000000000000000000000081526004016109b2906143d9565b60405180910390fd5b6000600d82815481106109d1576109d0614808565b5b90600052602060002090601a02016040518060c00160405290816000820160009054906101000a900467ffffffffffffffff1667ffffffffffffffff1667ffffffffffffffff1681526020016000820160089054906101000a900467ffffffffffffffff1667ffffffffffffffff1667ffffffffffffffff16815260200160018201601880602002604051908101604052809291906000905b82821015610ae657838201600e806020026040519081016040528092919082600e8015610ad2576020028201916000905b82829054906101000a900460ff1660ff1681526020019060010190602082600001049283019260010382029150808411610a9b5790505b505050505081526020019060010190610a6a565b5050505081526020016019820160009054906101000a900467ffffffffffffffff1667ffffffffffffffff1667ffffffffffffffff1681526020016019820160089054906101000a900463ffffffff1663ffffffff1663ffffffff16815260200160198201600c9054906101000a900463ffffffff1663ffffffff1663ffffffff16815250509050806000015181602001518260400151836060015184608001518560a00151975097509750975097509750505091939550919395565b6000806000837bffffffffffffffffffffffffffffffffffffffffffffffffffffffff19167bffffffffffffffffffffffffffffffffffffffffffffffffffffffff1916815260200190815260200160002060009054906101000a900460ff169050919050565b600081600073ffffffffffffffffffffffffffffffffffffffff166001600083815260200190815260200160002060009054906101000a900473ffffffffffffffffffffffffffffffffffffffff1673ffffffffffffffffffffffffffffffffffffffff1614156040518060400160405280600681526020017f303033303032000000000000000000000000000000000000000000000000000081525090610ce8576040517f08c379a0000000000000000000000000000000000000000000000000000000008152600401610cdf9190614397565b60405180910390fd5b506002600084815260200190815260200160002060009054906101000a900473ffffffffffffffffffffffffffffffffffffffff16915050919050565b8060006001600083815260200190815260200160002060009054906101000a900473ffffffffffffffffffffffffffffffffffffffff1690503373ffffffffffffffffffffffffffffffffffffffff168173ffffffffffffffffffffffffffffffffffffffff161480610e1e5750600460008273ffffffffffffffffffffffffffffffffffffffff1673ffffffffffffffffffffffffffffffffffffffff16815260200190815260200160002060003373ffffffffffffffffffffffffffffffffffffffff1673ffffffffffffffffffffffffffffffffffffffff16815260200190815260200160002060009054906101000a900460ff165b6040518060400160405280600681526020017f303033303033000000000000000000000000000000000000000000000000000081525090610e95576040517f08c379a0000000000000000000000000000000000000000000000000000000008152600401610e8c9190614397565b60405180910390fd5b5082600073ffffffffffffffffffffffffffffffffffffffff166001600083815260200190815260200160002060009054906101000a900473ffffffffffffffffffffffffffffffffffffffff1673ffffffffffffffffffffffffffffffffffffffff1614156040518060400160405280600681526020017f303033303032000000000000000000000000000000000000000000000000000081525090610f72576040517f08c379a0000000000000000000000000000000000000000000000000000000008152600401610f699190614397565b60405180910390fd5b5060006001600086815260200190815260200160002060009054906101000a900473ffffffffffffffffffffffffffffffffffffffff1690508073ffffffffffffffffffffffffffffffffffffffff168673ffffffffffffffffffffffffffffffffffffffff1614156040518060400160405280600681526020017f303033303038000000000000000000000000000000000000000000000000000081525090611052576040517f08c379a00000000000000000000000000000000000000000000000000000000081526004016110499190614397565b60405180910390fd5b50856002600087815260200190815260200160002060006101000a81548173ffffffffffffffffffffffffffffffffffffffff021916908373ffffffffffffffffffffffffffffffffffffffff160217905550848673ffffffffffffffffffffffffffffffffffffffff168273ffffffffffffffffffffffffffffffffffffffff167f8c5be1e5ebec7d5bd14f71427d1e84f3dd0314c0f7b2291e5b200ac8c7c3b92560405160405180910390a4505050505050565b600960009054906101000a900473ffffffffffffffffffffffffffffffffffffffff1673ffffffffffffffffffffffffffffffffffffffff163373ffffffffffffffffffffffffffffffffffffffff16146040518060400160405280600681526020017f3031383030310000000000000000000000000000000000000000000000000000815250906111d0576040517f08c379a00000000000000000000000000000000000000000000000000000000081526004016111c79190614397565b60405180910390fd5b50600073ffffffffffffffffffffffffffffffffffffffff168273ffffffffffffffffffffffffffffffffffffffff16141561120b57600080fd5b8173ffffffffffffffffffffffffffffffffffffffff166108fc829081150290604051600060405180830381858888f19350505050158015611251573d6000803e3d6000fd5b505050565b6000600580549050905090565b8060006001600083815260200190815260200160002060009054906101000a900473ffffffffffffffffffffffffffffffffffffffff1690503373ffffffffffffffffffffffffffffffffffffffff168173ffffffffffffffffffffffffffffffffffffffff16148061133457503373ffffffffffffffffffffffffffffffffffffffff166002600084815260200190815260200160002060009054906101000a900473ffffffffffffffffffffffffffffffffffffffff1673ffffffffffffffffffffffffffffffffffffffff16145b806113c55750600460008273ffffffffffffffffffffffffffffffffffffffff1673ffffffffffffffffffffffffffffffffffffffff16815260200190815260200160002060003373ffffffffffffffffffffffffffffffffffffffff1673ffffffffffffffffffffffffffffffffffffffff16815260200190815260200160002060009054906101000a900460ff165b6040518060400160405280600681526020017f30303330303400000000000000000000000000000000000000000000000000008152509061143c576040517f08c379a00000000000000000000000000000000000000000000000000000000081526004016114339190614397565b60405180910390fd5b5082600073ffffffffffffffffffffffffffffffffffffffff166001600083815260200190815260200160002060009054906101000a900473ffffffffffffffffffffffffffffffffffffffff1673ffffffffffffffffffffffffffffffffffffffff1614156040518060400160405280600681526020017f303033303032000000000000000000000000000000000000000000000000000081525090611519576040517f08c379a00000000000000000000000000000000000000000000000000000000081526004016115109190614397565b60405180910390fd5b5060006001600086815260200190815260200160002060009054906101000a900473ffffffffffffffffffffffffffffffffffffffff1690508673ffffffffffffffffffffffffffffffffffffffff168173ffffffffffffffffffffffffffffffffffffffff16146040518060400160405280600681526020017f3030333030370000000000000000000000000000000000000000000000000000815250906115f8576040517f08c379a00000000000000000000000000000000000000000000000000000000081526004016115ef9190614397565b60405180910390fd5b50600073ffffffffffffffffffffffffffffffffffffffff168673ffffffffffffffffffffffffffffffffffffffff1614156040518060400160405280600681526020017f3030333030310000000000000000000000000000000000000000000000000000815250906116a1576040517f08c379a00000000000000000000000000000000000000000000000000000000081526004016116989190614397565b60405180910390fd5b506116ac86866128ab565b50505050505050565b6000600760008473ffffffffffffffffffffffffffffffffffffffff1673ffffffffffffffffffffffffffffffffffffffff1681526020019081526020016000208054905082106040518060400160405280600681526020017f303035303037000000000000000000000000000000000000000000000000000081525090611773576040517f08c379a000000000000000000000000000000000000000000000000000000000815260040161176a9190614397565b60405180910390fd5b50600760008473ffffffffffffffffffffffffffffffffffffffff1673ffffffffffffffffffffffffffffffffffffffff16815260200190815260200160002082815481106117c5576117c4614808565b5b9060005260206000200154905092915050565b6000600960009054906101000a900473ffffffffffffffffffffffffffffffffffffffff1673ffffffffffffffffffffffffffffffffffffffff163373ffffffffffffffffffffffffffffffffffffffff16146040518060400160405280600681526020017f3031383030310000000000000000000000000000000000000000000000000000815250906118a2576040517f08c379a00000000000000000000000000000000000000000000000000000000081526004016118999190614397565b60405180910390fd5b50600960149054906101000a900460ff166118bc57600080fd5b6000600960146101000a81548160ff0219169083151502179055507f7805862f689e2f13df9f062ff482ad3ad112aca9e0847911ed832e158c525b3360405160405180910390a16001905090565b600960009054906101000a900473ffffffffffffffffffffffffffffffffffffffff1673ffffffffffffffffffffffffffffffffffffffff163373ffffffffffffffffffffffffffffffffffffffff16146040518060400160405280600681526020017f3031383030310000000000000000000000000000000000000000000000000000815250906119d2576040517f08c379a00000000000000000000000000000000000000000000000000000000081526004016119c99190614397565b60405180910390fd5b5080600c60006101000a81548173ffffffffffffffffffffffffffffffffffffffff021916908373ffffffffffffffffffffffffffffffffffffffff16021790555050565b611a3283838360405180602001604052806000815250612960565b505050565b600960149054906101000a900460ff1615611a5157600080fd5b3373ffffffffffffffffffffffffffffffffffffffff166001600086815260200190815260200160002060009054906101000a900473ffffffffffffffffffffffffffffffffffffffff1673ffffffffffffffffffffffffffffffffffffffff1614611af2576040517f08c379a0000000000000000000000000000000000000000000000000000000008152600401611ae9906143b9565b60405180910390fd5b81831015611aff57600080fd5b611b2b84600a60009054906101000a900473ffffffffffffffffffffffffffffffffffffffff16612f2e565b600a60009054906101000a900473ffffffffffffffffffffffffffffffffffffffff1673ffffffffffffffffffffffffffffffffffffffff166327ebe40a85858585336040518663ffffffff1660e01b8152600401611b8e959493929190614414565b600060405180830381600087803b158015611ba857600080fd5b505af1158015611bbc573d6000803e3d6000fd5b5050505050505050565b600060058054905082106040518060400160405280600681526020017f303035303037000000000000000000000000000000000000000000000000000081525090611c47576040517f08c379a0000000000000000000000000000000000000000000000000000000008152600401611c3e9190614397565b60405180910390fd5b5060058281548110611c5c57611c5b614808565b5b90600052602060002001549050919050565b600960149054906101000a900460ff1681565b60006001600083815260200190815260200160002060009054906101000a900473ffffffffffffffffffffffffffffffffffffffff169050600073ffffffffffffffffffffffffffffffffffffffff168173ffffffffffffffffffffffffffffffffffffffff1614156040518060400160405280600681526020017f303033303032000000000000000000000000000000000000000000000000000081525090611d61576040517f08c379a0000000000000000000000000000000000000000000000000000000008152600401611d589190614397565b60405180910390fd5b50919050565b600960009054906101000a900473ffffffffffffffffffffffffffffffffffffffff1673ffffffffffffffffffffffffffffffffffffffff163373ffffffffffffffffffffffffffffffffffffffff16146040518060400160405280600681526020017f303138303031000000000000000000000000000000000000000000000000000081525090611e2f576040517f08c379a0000000000000000000000000000000000000000000000000000000008152600401611e269190614397565b60405180910390fd5b5060008190508073ffffffffffffffffffffffffffffffffffffffff166385b861886040518163ffffffff1660e01b815260040160206040518083038186803b158015611e7b57600080fd5b505afa158015611e8f573d6000803e3d6000fd5b505050506040513d601f19601f82011682018060405250810190611eb39190613f89565b611ebc57600080fd5b80600a60006101000a81548173ffffffffffffffffffffffffffffffffffffffff021916908373ffffffffffffffffffffffffffffffffffffffff1602179055505050565b60008073ffffffffffffffffffffffffffffffffffffffff168273ffffffffffffffffffffffffffffffffffffffff1614156040518060400160405280600681526020017f303033303031000000000000000000000000000000000000000000000000000081525090611faa576040517f08c379a0000000000000000000000000000000000000000000000000000000008152600401611fa19190614397565b60405180910390fd5b50611fb482612f84565b9050919050565b6000600960009054906101000a900473ffffffffffffffffffffffffffffffffffffffff1673ffffffffffffffffffffffffffffffffffffffff163373ffffffffffffffffffffffffffffffffffffffff16146040518060400160405280600681526020017f303138303031000000000000000000000000000000000000000000000000000081525090612085576040517f08c379a000000000000000000000000000000000000000000000000000000000815260040161207c9190614397565b60405180910390fd5b50600960149054906101000a900460ff16156120a057600080fd5b6001600960146101000a81548160ff0219169083151502179055507f6985a02210a168e66602d3235cb6db0e70f92b3ba4d376a33c0f3d9434bff62560405160405180910390a16001905090565b6040518060400160405280600681526020017f303138303032000000000000000000000000000000000000000000000000000081525081565b600960009054906101000a900473ffffffffffffffffffffffffffffffffffffffff1673ffffffffffffffffffffffffffffffffffffffff163373ffffffffffffffffffffffffffffffffffffffff16146040518060400160405280600681526020017f3031383030310000000000000000000000000000000000000000000000000000815250906121ef576040517f08c379a00000000000000000000000000000000000000000000000000000000081526004016121e69190614397565b60405180910390fd5b5080600b8190555050565b600960009054906101000a900473ffffffffffffffffffffffffffffffffffffffff1681565b80600460003373ffffffffffffffffffffffffffffffffffffffff1673ffffffffffffffffffffffffffffffffffffffff16815260200190815260200160002060008473ffffffffffffffffffffffffffffffffffffffff1673ffffffffffffffffffffffffffffffffffffffff16815260200190815260200160002060006101000a81548160ff0219169083151502179055508173ffffffffffffffffffffffffffffffffffffffff163373ffffffffffffffffffffffffffffffffffffffff167f17307eab39ab6107e8899845ad3d59bd9653f200f220920489ca2b5937696c31836040516123119190614361565b60405180910390a35050565b6000349050600b5481101561233157600080fd5b61233e8585858533612fd0565b6000600b548261234e9190614625565b905060008111156123a1573373ffffffffffffffffffffffffffffffffffffffff166108fc829081150290604051600060405180830381858888f1935050505015801561239f573d6000803e3d6000fd5b505b505050505050565b6123f985858585858080601f016020809104026020016040519081016040528093929190818152602001838380828437600081840152601f19601f82011690508083019250505050505050612960565b5050505050565b600c60009054906101000a900473ffffffffffffffffffffffffffffffffffffffff1681565b600960009054906101000a900473ffffffffffffffffffffffffffffffffffffffff1673ffffffffffffffffffffffffffffffffffffffff163373ffffffffffffffffffffffffffffffffffffffff16146040518060400160405280600681526020017f3031383030310000000000000000000000000000000000000000000000000000815250906124ee576040517f08c379a00000000000000000000000000000000000000000000000000000000081526004016124e59190614397565b60405180910390fd5b50600a60009054906101000a900473ffffffffffffffffffffffffffffffffffffffff1673ffffffffffffffffffffffffffffffffffffffff16635fd8c7106040518163ffffffff1660e01b8152600401600060405180830381600087803b15801561255957600080fd5b505af115801561256d573d6000803e3d6000fd5b50505050565b600a60009054906101000a900473ffffffffffffffffffffffffffffffffffffffff1681565b6000600460008473ffffffffffffffffffffffffffffffffffffffff1673ffffffffffffffffffffffffffffffffffffffff16815260200190815260200160002060008373ffffffffffffffffffffffffffffffffffffffff1673ffffffffffffffffffffffffffffffffffffffff16815260200190815260200160002060009054906101000a900460ff16905092915050565b600960009054906101000a900473ffffffffffffffffffffffffffffffffffffffff1673ffffffffffffffffffffffffffffffffffffffff163373ffffffffffffffffffffffffffffffffffffffff16146040518060400160405280600681526020017f3031383030310000000000000000000000000000000000000000000000000000815250906126f5576040517f08c379a00000000000000000000000000000000000000000000000000000000081526004016126ec9190614397565b60405180910390fd5b50600073ffffffffffffffffffffffffffffffffffffffff168173ffffffffffffffffffffffffffffffffffffffff1614156040518060400160405280600681526020017f30313830303200000000000000000000000000000000000000000000000000008152509061279e576040517f08c379a00000000000000000000000000000000000000000000000000000000081526004016127959190614397565b60405180910390fd5b508073ffffffffffffffffffffffffffffffffffffffff16600960009054906101000a900473ffffffffffffffffffffffffffffffffffffffff1673ffffffffffffffffffffffffffffffffffffffff167f8be0079c531659141344cd1fd0a4f28419497f9722a3daafe3b4186f6b6457e060405160405180910390a380600960006101000a81548173ffffffffffffffffffffffffffffffffffffffff021916908373ffffffffffffffffffffffffffffffffffffffff16021790555050565b6040518060400160405280600681526020017f303138303031000000000000000000000000000000000000000000000000000081525081565b600b5481565b6000600580549050905090565b60006001600083815260200190815260200160002060009054906101000a900473ffffffffffffffffffffffffffffffffffffffff1690506128ec826131b1565b6128f681836131ea565b61290083836134b1565b818373ffffffffffffffffffffffffffffffffffffffff168273ffffffffffffffffffffffffffffffffffffffff167fddf252ad1be2c89b69c2b068fc378daa952ba7f163c4a11628f55a4df523b3ef60405160405180910390a4505050565b8160006001600083815260200190815260200160002060009054906101000a900473ffffffffffffffffffffffffffffffffffffffff1690503373ffffffffffffffffffffffffffffffffffffffff168173ffffffffffffffffffffffffffffffffffffffff161480612a3157503373ffffffffffffffffffffffffffffffffffffffff166002600084815260200190815260200160002060009054906101000a900473ffffffffffffffffffffffffffffffffffffffff1673ffffffffffffffffffffffffffffffffffffffff16145b80612ac25750600460008273ffffffffffffffffffffffffffffffffffffffff1673ffffffffffffffffffffffffffffffffffffffff16815260200190815260200160002060003373ffffffffffffffffffffffffffffffffffffffff1673ffffffffffffffffffffffffffffffffffffffff16815260200190815260200160002060009054906101000a900460ff165b6040518060400160405280600681526020017f303033303034000000000000000000000000000000000000000000000000000081525090612b39576040517f08c379a0000000000000000000000000000000000000000000000000000000008152600401612b309190614397565b60405180910390fd5b5083600073ffffffffffffffffffffffffffffffffffffffff166001600083815260200190815260200160002060009054906101000a900473ffffffffffffffffffffffffffffffffffffffff1673ffffffffffffffffffffffffffffffffffffffff1614156040518060400160405280600681526020017f303033303032000000000000000000000000000000000000000000000000000081525090612c16576040517f08c379a0000000000000000000000000000000000000000000000000000000008152600401612c0d9190614397565b60405180910390fd5b5060006001600087815260200190815260200160002060009054906101000a900473ffffffffffffffffffffffffffffffffffffffff1690508773ffffffffffffffffffffffffffffffffffffffff168173ffffffffffffffffffffffffffffffffffffffff16146040518060400160405280600681526020017f303033303037000000000000000000000000000000000000000000000000000081525090612cf5576040517f08c379a0000000000000000000000000000000000000000000000000000000008152600401612cec9190614397565b60405180910390fd5b50600073ffffffffffffffffffffffffffffffffffffffff168773ffffffffffffffffffffffffffffffffffffffff1614156040518060400160405280600681526020017f303033303031000000000000000000000000000000000000000000000000000081525090612d9e576040517f08c379a0000000000000000000000000000000000000000000000000000000008152600401612d959190614397565b60405180910390fd5b50612da987876128ab565b612dc88773ffffffffffffffffffffffffffffffffffffffff166136ae565b15612f245760008773ffffffffffffffffffffffffffffffffffffffff1663150b7a02338b8a8a6040518563ffffffff1660e01b8152600401612e0e94939291906142ec565b602060405180830381600087803b158015612e2857600080fd5b505af1158015612e3c573d6000803e3d6000fd5b505050506040513d601f19601f82011682018060405250810190612e609190613fe3565b905063150b7a0260e01b7bffffffffffffffffffffffffffffffffffffffffffffffffffffffff1916817bffffffffffffffffffffffffffffffffffffffffffffffffffffffff1916146040518060400160405280600681526020017f303033303035000000000000000000000000000000000000000000000000000081525090612f21576040517f08c379a0000000000000000000000000000000000000000000000000000000008152600401612f189190614397565b60405180910390fd5b50505b5050505050505050565b806002600084815260200190815260200160002060006101000a81548173ffffffffffffffffffffffffffffffffffffffff021916908373ffffffffffffffffffffffffffffffffffffffff1602179055505050565b6000600760008373ffffffffffffffffffffffffffffffffffffffff1673ffffffffffffffffffffffffffffffffffffffff168152602001908152602001600020805490509050919050565b60006040518060c001604052804267ffffffffffffffff1681526020016001600d80549050612fff91906145cf565b67ffffffffffffffff1681526020018781526020018667ffffffffffffffff1681526020018563ffffffff1681526020018463ffffffff168152509050600d8190806001815401808255809150506001900390600052602060002090601a020160009091909190915060008201518160000160006101000a81548167ffffffffffffffff021916908367ffffffffffffffff16021790555060208201518160000160086101000a81548167ffffffffffffffff021916908367ffffffffffffffff1602179055506040820151816001019060186130dd929190613975565b5060608201518160190160006101000a81548167ffffffffffffffff021916908367ffffffffffffffff16021790555060808201518160190160086101000a81548163ffffffff021916908363ffffffff16021790555060a082015181601901600c6101000a81548163ffffffff021916908363ffffffff160217905550505061316c82600d805490506136f9565b7f1a4fe96609ea58c059268747c291344dae9cf06ca12f4d4b4cba978488de124a3382602001516040516131a1929190614338565b60405180910390a1505050505050565b6002600082815260200190815260200160002060006101000a81549073ffffffffffffffffffffffffffffffffffffffff021916905550565b8173ffffffffffffffffffffffffffffffffffffffff166001600083815260200190815260200160002060009054906101000a900473ffffffffffffffffffffffffffffffffffffffff1673ffffffffffffffffffffffffffffffffffffffff16146040518060400160405280600681526020017f3030333030370000000000000000000000000000000000000000000000000000815250906132c3576040517f08c379a00000000000000000000000000000000000000000000000000000000081526004016132ba9190614397565b60405180910390fd5b506001600082815260200190815260200160002060006101000a81549073ffffffffffffffffffffffffffffffffffffffff021916905560006008600083815260200190815260200160002054905060006001600760008673ffffffffffffffffffffffffffffffffffffffff1673ffffffffffffffffffffffffffffffffffffffff168152602001908152602001600020805490506133639190614625565b9050818114613446576000600760008673ffffffffffffffffffffffffffffffffffffffff1673ffffffffffffffffffffffffffffffffffffffff16815260200190815260200160002082815481106133bf576133be614808565b5b9060005260206000200154905080600760008773ffffffffffffffffffffffffffffffffffffffff1673ffffffffffffffffffffffffffffffffffffffff168152602001908152602001600020848154811061341e5761341d614808565b5b9060005260206000200181905550826008600083815260200190815260200160002081905550505b600760008573ffffffffffffffffffffffffffffffffffffffff1673ffffffffffffffffffffffffffffffffffffffff168152602001908152602001600020805480613495576134946147d9565b5b6001900381819060005260206000200160009055905550505050565b600073ffffffffffffffffffffffffffffffffffffffff166001600083815260200190815260200160002060009054906101000a900473ffffffffffffffffffffffffffffffffffffffff1673ffffffffffffffffffffffffffffffffffffffff16146040518060400160405280600681526020017f30303330303600000000000000000000000000000000000000000000000000008152509061358b576040517f08c379a00000000000000000000000000000000000000000000000000000000081526004016135829190614397565b60405180910390fd5b50816001600083815260200190815260200160002060006101000a81548173ffffffffffffffffffffffffffffffffffffffff021916908373ffffffffffffffffffffffffffffffffffffffff160217905550600760008373ffffffffffffffffffffffffffffffffffffffff1673ffffffffffffffffffffffffffffffffffffffff1681526020019081526020016000208190806001815401808255809150506001900390600052602060002001600090919091909150556001600760008473ffffffffffffffffffffffffffffffffffffffff1673ffffffffffffffffffffffffffffffffffffffff168152602001908152602001600020805490506136939190614625565b60086000838152602001908152602001600020819055505050565b60008060007fc5d2460186f7233c927e7db2dcc703c0e500b653ca82273b7bfad8045d85a47060001b9050833f91506000801b82141580156136f05750808214155b92505050919050565b6137038282613759565b6005819080600181540180825580915050600190039060005260206000200160009091909190915055600160058054905061373e9190614625565b60066000838152602001908152602001600020819055505050565b600073ffffffffffffffffffffffffffffffffffffffff168273ffffffffffffffffffffffffffffffffffffffff1614156040518060400160405280600681526020017f303033303031000000000000000000000000000000000000000000000000000081525090613801576040517f08c379a00000000000000000000000000000000000000000000000000000000081526004016137f89190614397565b60405180910390fd5b50600073ffffffffffffffffffffffffffffffffffffffff166001600083815260200190815260200160002060009054906101000a900473ffffffffffffffffffffffffffffffffffffffff1673ffffffffffffffffffffffffffffffffffffffff16146040518060400160405280600681526020017f3030333030360000000000000000000000000000000000000000000000000000815250906138dc576040517f08c379a00000000000000000000000000000000000000000000000000000000081526004016138d39190614397565b60405180910390fd5b506138e782826134b1565b808273ffffffffffffffffffffffffffffffffffffffff16600073ffffffffffffffffffffffffffffffffffffffff167fddf252ad1be2c89b69c2b068fc378daa952ba7f163c4a11628f55a4df523b3ef60405160405180910390a45050565b6040518061030001604052806018905b61395f6139c3565b8152602001906001900390816139575790505090565b82601881019282156139b2579160200282015b828111156139b15782518290600e6139a19291906139e6565b5091602001919060010190613988565b5b5090506139bf9190613a80565b5090565b604051806101c00160405280600e90602082028036833780820191505090505090565b82600e601f01602090048101928215613a6f5791602002820160005b83821115613a4057835183826101000a81548160ff021916908360ff1602179055509260200192600101602081600001049283019260010302613a02565b8015613a6d5782816101000a81549060ff0219169055600101602081600001049283019260010302613a40565b505b509050613a7c9190613aa4565b5090565b5b80821115613aa05760008181613a979190613ac1565b50600101613a81565b5090565b5b80821115613abd576000816000905550600101613aa5565b5090565b5060009055565b6000613adb613ad6846144f1565b6144cc565b90508082856101c0860282011115613af657613af5614870565b5b60005b85811015613b275781613b0c8882613bed565b84526020840193506101c08301925050600181019050613af9565b5050509392505050565b6000613b44613b3f84614517565b6144cc565b90508082856020860282011115613b5e57613b5d614870565b5b60005b85811015613b8e5781613b748882613d01565b845260208401935060208301925050600181019050613b61565b5050509392505050565b600081359050613ba7816148e2565b92915050565b600081359050613bbc816148f9565b92915050565b600082601f830112613bd757613bd661486b565b5b6018613be4848285613ac8565b91505092915050565b600082601f830112613c0257613c0161486b565b5b600e613c0f848285613b31565b91505092915050565b600081359050613c2781614910565b92915050565b600081519050613c3c81614910565b92915050565b600081359050613c5181614927565b92915050565b600081519050613c6681614927565b92915050565b60008083601f840112613c8257613c8161486b565b5b8235905067ffffffffffffffff811115613c9f57613c9e614866565b5b602083019150836001820283011115613cbb57613cba614870565b5b9250929050565b600081359050613cd18161493e565b92915050565b600081359050613ce681614955565b92915050565b600081359050613cfb8161496c565b92915050565b600081359050613d1081614983565b92915050565b600060208284031215613d2c57613d2b61487a565b5b6000613d3a84828501613b98565b91505092915050565b60008060408385031215613d5a57613d5961487a565b5b6000613d6885828601613bad565b9250506020613d7985828601613cc2565b9150509250929050565b60008060408385031215613d9a57613d9961487a565b5b6000613da885828601613b98565b9250506020613db985828601613b98565b9150509250929050565b600080600060608486031215613ddc57613ddb61487a565b5b6000613dea86828701613b98565b9350506020613dfb86828701613b98565b9250506040613e0c86828701613cc2565b9150509250925092565b600080600080600060808688031215613e3257613e3161487a565b5b6000613e4088828901613b98565b9550506020613e5188828901613b98565b9450506040613e6288828901613cc2565b935050606086013567ffffffffffffffff811115613e8357613e82614875565b5b613e8f88828901613c6c565b92509250509295509295909350565b60008060408385031215613eb557613eb461487a565b5b6000613ec385828601613b98565b9250506020613ed485828601613c18565b9150509250929050565b60008060408385031215613ef557613ef461487a565b5b6000613f0385828601613b98565b9250506020613f1485828601613cc2565b9150509250929050565b600080600080612a608587031215613f3957613f3861487a565b5b6000613f4787828801613bc2565b945050612a00613f5987828801613cec565b935050612a20613f6b87828801613cd7565b925050612a40613f7d87828801613cd7565b91505092959194509250565b600060208284031215613f9f57613f9e61487a565b5b6000613fad84828501613c2d565b91505092915050565b600060208284031215613fcc57613fcb61487a565b5b6000613fda84828501613c42565b91505092915050565b600060208284031215613ff957613ff861487a565b5b600061400784828501613c57565b91505092915050565b6000602082840312156140265761402561487a565b5b600061403484828501613cc2565b91505092915050565b600080600080608085870312156140575761405661487a565b5b600061406587828801613cc2565b945050602061407687828801613cc2565b935050604061408787828801613cc2565b925050606061409887828801613cc2565b91505092959194509250565b6000602082840312156140ba576140b961487a565b5b60006140c884828501613cec565b91505092915050565b60006140dd8383614168565b6101c08301905092915050565b60006140f683836142c2565b60208301905092915050565b61410b81614659565b82525050565b61411a81614551565b6141248184614597565b925061412f8261453d565b8060005b8381101561416057815161414787826140d1565b96506141528361457d565b925050600181019050614133565b505050505050565b6141718161455c565b61417b81846145a2565b925061418682614547565b8060005b838110156141b757815161419e87826140ea565b96506141a98361458a565b92505060018101905061418a565b505050505050565b6141c88161467d565b82525050565b60006141d982614567565b6141e381856145ad565b93506141f3818560208601614746565b6141fc8161487f565b840191505092915050565b61421081614710565b82525050565b600061422182614572565b61422b81856145be565b935061423b818560208601614746565b6142448161487f565b840191505092915050565b600061425c6019836145be565b915061426782614890565b602082019050919050565b600061427f6006836145be565b915061428a826148b9565b602082019050919050565b61429e816146d5565b82525050565b6142ad816146df565b82525050565b6142bc816146ef565b82525050565b6142cb81614703565b82525050565b60006020820190506142e66000830184614102565b92915050565b60006080820190506143016000830187614102565b61430e6020830186614102565b61431b6040830185614295565b818103606083015261432d81846141ce565b905095945050505050565b600060408201905061434d6000830185614102565b61435a60208301846142b3565b9392505050565b600060208201905061437660008301846141bf565b92915050565b60006020820190506143916000830184614207565b92915050565b600060208201905081810360008301526143b18184614216565b905092915050565b600060208201905081810360008301526143d28161424f565b9050919050565b600060208201905081810360008301526143f281614272565b9050919050565b600060208201905061440e6000830184614295565b92915050565b600060a0820190506144296000830188614295565b6144366020830187614295565b6144436040830186614295565b6144506060830185614295565b61445d6080830184614102565b9695505050505050565b6000612aa08201905061447d60008301896142b3565b61448a60208301886142b3565b6144976040830187614111565b6144a5612a408301866142b3565b6144b3612a608301856142a4565b6144c1612a808301846142a4565b979650505050505050565b60006144d66144e7565b90506144e28282614779565b919050565b6000604051905090565b600067ffffffffffffffff82111561450c5761450b614837565b5b602082029050919050565b600067ffffffffffffffff82111561453257614531614837565b5b602082029050919050565b6000819050919050565b6000819050919050565b600060189050919050565b6000600e9050919050565b600081519050919050565b600081519050919050565b6000602082019050919050565b6000602082019050919050565b600081905092915050565b600081905092915050565b600082825260208201905092915050565b600082825260208201905092915050565b60006145da826146d5565b91506145e5836146d5565b9250827fffffffffffffffffffffffffffffffffffffffffffffffffffffffffffffffff0382111561461a576146196147aa565b5b828201905092915050565b6000614630826146d5565b915061463b836146d5565b92508282101561464e5761464d6147aa565b5b828203905092915050565b6000614664826146b5565b9050919050565b6000614676826146b5565b9050919050565b60008115159050919050565b60007fffffffff0000000000000000000000000000000000000000000000000000000082169050919050565b600073ffffffffffffffffffffffffffffffffffffffff82169050919050565b6000819050919050565b600063ffffffff82169050919050565b600067ffffffffffffffff82169050919050565b600060ff82169050919050565b600061471b82614722565b9050919050565b600061472d82614734565b9050919050565b600061473f826146b5565b9050919050565b60005b83811015614764578082015181840152602081019050614749565b83811115614773576000848401525b50505050565b6147828261487f565b810181811067ffffffffffffffff821117156147a1576147a0614837565b5b80604052505050565b7f4e487b7100000000000000000000000000000000000000000000000000000000600052601160045260246000fd5b7f4e487b7100000000000000000000000000000000000000000000000000000000600052603160045260246000fd5b7f4e487b7100000000000000000000000000000000000000000000000000000000600052603260045260246000fd5b7f4e487b7100000000000000000000000000000000000000000000000000000000600052604160045260246000fd5b600080fd5b600080fd5b600080fd5b600080fd5b600080fd5b6000601f19601f8301169050919050565b7f73656e646572206973206e6f7420746f6b656e206f776e657200000000000000600082015250565b7f3031383030310000000000000000000000000000000000000000000000000000600082015250565b6148eb81614659565b81146148f657600080fd5b50565b6149028161466b565b811461490d57600080fd5b50565b6149198161467d565b811461492457600080fd5b50565b61493081614689565b811461493b57600080fd5b50565b614947816146d5565b811461495257600080fd5b50565b61495e816146df565b811461496957600080fd5b50565b614975816146ef565b811461498057600080fd5b50565b61498c81614703565b811461499757600080fd5b5056fea2646970667358221220f6e0e1435fb847ed4cfe451e22910754dd15ffdabe04323d86b5aa65f2b2bd0964736f6c63430008070033",
  "immutableReferences": {},
  "source": "// SPDX-License-Identifier: MIT\npragma solidity ^0.8.7;\n\nimport \"./nfTokenEnumerable.sol\";\nimport \"./auctionContract.sol\";\nimport \"./pausable.sol\";\n\n// .    - , , ?    - ?\n//     (createTree) - ?? --    ,   (),   \n// ,  ,      \n// \n// \n// \n\n//   .  ?  !!! -    \n//     ???++\n\n\ncontract TreeContract is NFTokenEnumerable, Pausable {\n    /*** EVENTS ***/\n    event Creation(address owner, uint64 treeId);\n\n    /*** DATA TYPES ***/\n    struct Tree {\n        uint64 timestamp;\n        uint64 id;\n        uint8[14][24] dna;\n        uint64 generation;\n        uint32 matronId;\n        uint32 sireId;\n    }\n\n    SaleClockAuction public saleAuction;\n\n    // Cost (in wei) of the tree\n    uint256 public treeCost = 1000000000000000;\n    address public treeViewer;\n\n    /*** STORAGE ***/\n    Tree[] trees;\n\n    constructor() {\n        treeViewer = msg.sender;\n    }\n\n    function withdrawBalance(address payable _to, uint256 _amount) external onlyOwner {\n        require(_to != address(0));\n        _to.transfer(_amount);\n    }\n\n    function setTreeCost(uint256 _treeCost) external onlyOwner {\n        treeCost = _treeCost;\n    }\n\n    function setTreeViewer(address _treeViewer) external onlyOwner {\n        treeViewer = _treeViewer;\n    }\n\n    function createTree(\n        uint8[14][24] memory _dna,\n        uint64 _generation,\n        uint32 _matronId,\n        uint32 _sireId\n    )\n    external\n    payable\n    {\n        uint256 value = msg.value;\n        require(value >= treeCost);\n\n        _createTree(_dna, _generation, _matronId, _sireId, msg.sender);\n\n        uint256 change = value - treeCost;\n        if (change > 0) {\n            payable(msg.sender).transfer(change);\n        }\n    }\n\n    function treeCount()\n    external\n    view\n    returns (uint256)\n    {\n        return tokens.length;\n    }\n\n    /// @dev Sets the reference to the sale auction.\n    /// @param _address - Address of sale contract.\n    function setSaleAuctionAddress(address _address) external onlyOwner {\n        SaleClockAuction candidateContract = SaleClockAuction(_address);\n\n        require(candidateContract.isSaleClockAuction());\n\n        // Set the new contract address\n        saleAuction = candidateContract;\n    }\n\n    /// @dev Transfers the balance of the sale auction contract\n    /// to the TreeContract contract.\n    function withdrawAuctionBalance() external onlyOwner {\n        saleAuction.withdrawBalance();\n    }\n\n    function createAuction(\n        uint256 _tokenId,\n        uint256 _startingPrice,\n        uint256 _endingPrice,\n        uint256 _duration\n    )\n        external\n        whenNotPaused\n    {\n        require(idToOwner[_tokenId] == msg.sender, \"sender is not token owner\");\n\n//        require(_startingPrice == uint256(uint128(_startingPrice)));\n//        require(_endingPrice == uint256(uint128(_endingPrice)));\n//        require(_duration == uint256(uint64(_duration)));\n        require(_startingPrice >= _endingPrice);\n\n        _approve(_tokenId, address(saleAuction));\n\n        saleAuction.createAuction(\n            _tokenId,\n            _startingPrice,\n            _endingPrice,\n            _duration,\n            msg.sender\n        );\n    }\n\n    function getTreeData(uint64 _id)\n    public\n    view\n    returns (uint64, uint64, uint8[14][24] memory, uint64, uint32, uint32){\n        uint256 tokenIndex = idToIndex[_id];\n        require(tokenIndex < tokens.length, INVALID_INDEX);\n        require(\n            msg.sender == owner ||\n            msg.sender == treeViewer ||\n            msg.sender == idToOwner[_id],\n            \"018001\"\n        );\n\n        Tree memory _tree = trees[tokenIndex];\n\n        return (\n            _tree.timestamp,\n            _tree.id,\n            _tree.dna,\n            _tree.generation,\n            _tree.matronId,\n            _tree.sireId\n        );\n    }\n\n    function _approve(uint256 _tokenId, address _approved) internal {\n        idToApproval[_tokenId] = _approved;\n    }\n\n    function _createTree(uint8[14][24] memory _dna, uint64 _generation, uint32 _matronId, uint32 _sireId, address _owner)\n    internal\n    {\n        Tree memory _tree = Tree({\n            timestamp: uint64(block.timestamp),\n            id: uint64(trees.length + 1),\n            dna: _dna,\n            generation: _generation,\n            matronId: _matronId,\n            sireId: _sireId\n        });\n\n        trees.push(_tree);\n\n//        _mint(address(this), areas.length);\n//        _addNFToken(address(this), areas.length);\n        super._mint(_owner, trees.length);\n//        _addNFToken(msg.sender, areas.length);\n\n        // create event!!!\n        emit Creation(msg.sender, _tree.id);\n    }\n\n\n    receive() external payable {}\n}\n",
  "sourcePath": "/home/niko/projects/digital_forest/kotov/smart_contract/contracts/tokens/treeContract.sol",
  "compiler": {
    "name": "solc",
    "version": "0.8.7+commit.e28d00a7.Emscripten.clang"
  },
  "schemaVersion": "3.4.3",
  "updatedAt": "2021-12-15T14:28:48.947Z",
  "networkType": "ethereum",
  "devdoc": {
    "kind": "dev",
    "methods": {
      "approve(address,uint256)": {
        "details": "Set or reaffirm the approved address for an NFT. This function can be changed to payable.",
        "params": {
          "_approved": "Address to be approved for the given NFT ID.",
          "_tokenId": "ID of the token to be approved."
        }
      },
      "balanceOf(address)": {
        "details": "Returns the number of NFTs owned by `_owner`. NFTs assigned to the zero address are considered invalid, and this function throws for queries about the zero address.",
        "params": {
          "_owner": "Address for whom to query the balance."
        },
        "returns": {
          "_0": "Balance of _owner."
        }
      },
      "getApproved(uint256)": {
        "details": "Get the approved address for a single NFT.",
        "params": {
          "_tokenId": "ID of the NFT to query the approval of."
        },
        "returns": {
          "_0": "Address that _tokenId is approved for."
        }
      },
      "isApprovedForAll(address,address)": {
        "details": "Checks if `_operator` is an approved operator for `_owner`.",
        "params": {
          "_operator": "The address that acts on behalf of the owner.",
          "_owner": "The address that owns the NFTs."
        },
        "returns": {
          "_0": "True if approved for all, false otherwise."
        }
      },
      "ownerOf(uint256)": {
        "details": "Returns the address of the owner of the NFT. NFTs assigned to the zero address are considered invalid, and queries about them do throw.",
        "params": {
          "_tokenId": "The identifier for an NFT."
        },
        "returns": {
          "_owner": "Address of _tokenId owner."
        }
      },
      "pause()": {
        "details": "called by the owner to pause, triggers stopped state"
      },
      "safeTransferFrom(address,address,uint256)": {
        "details": "Transfers the ownership of an NFT from one address to another address. This function can be changed to payable.",
        "params": {
          "_from": "The current owner of the NFT.",
          "_to": "The new owner.",
          "_tokenId": "The NFT to transfer."
        }
      },
      "safeTransferFrom(address,address,uint256,bytes)": {
        "details": "Transfers the ownership of an NFT from one address to another address. This function can be changed to payable.",
        "params": {
          "_data": "Additional data with no specified format, sent in call to `_to`.",
          "_from": "The current owner of the NFT.",
          "_to": "The new owner.",
          "_tokenId": "The NFT to transfer."
        }
      },
      "setApprovalForAll(address,bool)": {
        "details": "Enables or disables approval for a third party (\"operator\") to manage all of `msg.sender`'s assets. It also emits the ApprovalForAll event.",
        "params": {
          "_approved": "True if the operators is approved, false to revoke approval.",
          "_operator": "Address to add to the set of authorized operators."
        }
      },
      "setSaleAuctionAddress(address)": {
        "details": "Sets the reference to the sale auction.",
        "params": {
          "_address": "- Address of sale contract."
        }
      },
      "supportsInterface(bytes4)": {
        "details": "Function to check which interfaces are suported by this contract.",
        "params": {
          "_interfaceID": "Id of the interface."
        },
        "returns": {
          "_0": "True if _interfaceID is supported, false otherwise."
        }
      },
      "tokenByIndex(uint256)": {
        "details": "Returns NFT ID by its index.",
        "params": {
          "_index": "A counter less than `totalSupply()`."
        },
        "returns": {
          "_0": "Token id."
        }
      },
      "tokenOfOwnerByIndex(address,uint256)": {
        "details": "returns the n-th NFT ID from a list of owner's tokens.",
        "params": {
          "_index": "Index number representing n-th token in owner's list of tokens.",
          "_owner": "Token owner's address."
        },
        "returns": {
          "_0": "Token id."
        }
      },
      "totalSupply()": {
        "details": "Returns the count of all existing NFTokens.",
        "returns": {
          "_0": "Total supply of NFTs."
        }
      },
      "transferFrom(address,address,uint256)": {
        "details": "Throws unless `msg.sender` is the current owner, an authorized operator, or the approved address for this NFT. Throws if `_from` is not the current owner. Throws if `_to` is the zero address. Throws if `_tokenId` is not a valid NFT. This function can be changed to payable.",
        "params": {
          "_from": "The current owner of the NFT.",
          "_to": "The new owner.",
          "_tokenId": "The NFT to transfer."
        }
      },
      "transferOwnership(address)": {
        "details": "Allows the current owner to transfer control of the contract to a newOwner.",
        "params": {
          "_newOwner": "The address to transfer ownership to."
        }
      },
      "unpause()": {
        "details": "called by the owner to unpause, returns to normal state"
      },
      "withdrawAuctionBalance()": {
        "details": "Transfers the balance of the sale auction contract to the TreeContract contract."
      }
    },
    "version": 1
  },
  "userdoc": {
    "kind": "user",
    "methods": {
      "approve(address,uint256)": {
        "notice": "The zero address indicates there is no approved address. Throws unless `msg.sender` is the current NFT owner, or an authorized operator of the current owner."
      },
      "getApproved(uint256)": {
        "notice": "Throws if `_tokenId` is not a valid NFT."
      },
      "safeTransferFrom(address,address,uint256)": {
        "notice": "This works identically to the other function with an extra data parameter, except this function just sets data to \"\""
      },
      "safeTransferFrom(address,address,uint256,bytes)": {
        "notice": "Throws unless `msg.sender` is the current owner, an authorized operator, or the approved address for this NFT. Throws if `_from` is not the current owner. Throws if `_to` is the zero address. Throws if `_tokenId` is not a valid NFT. When transfer is complete, this function checks if `_to` is a smart contract (code size > 0). If so, it calls `onERC721Received` on `_to` and throws if the return value is not `bytes4(keccak256(\"onERC721Received(address,uint256,bytes)\"))`."
      },
      "setApprovalForAll(address,bool)": {
        "notice": "This works even if sender doesn't own any tokens at the time."
      },
      "transferFrom(address,address,uint256)": {
        "notice": "The caller is responsible to confirm that `_to` is capable of receiving NFTs or else they may be permanently lost."
      }
    },
    "version": 1
  }
}